{
  "contractName": "CrossChainSwapV2",
  "abi": [
    {
      "inputs": [
        {
          "internalType": "address",
          "name": "_swapRouterAddress",
          "type": "address"
        },
        {
          "internalType": "address",
          "name": "_wormholeAddress",
          "type": "address"
        },
        {
          "internalType": "address",
          "name": "_usdcIntegrationAddress",
          "type": "address"
        },
        {
          "internalType": "address",
          "name": "_usdcAddress",
          "type": "address"
        },
        {
          "internalType": "address",
          "name": "_wrappedNativeAddress",
          "type": "address"
        }
      ],
      "stateMutability": "nonpayable",
      "type": "constructor"
    },
    {
      "anonymous": false,
      "inputs": [
        {
          "indexed": true,
          "internalType": "address",
          "name": "_recipient",
          "type": "address"
        },
        {
          "indexed": false,
          "internalType": "address",
          "name": "_tokenOut",
          "type": "address"
        },
        {
          "indexed": false,
          "internalType": "address",
          "name": "_from",
          "type": "address"
        },
        {
          "indexed": false,
          "internalType": "uint256",
          "name": "_amountOut",
          "type": "uint256"
        },
        {
          "indexed": false,
          "internalType": "uint8",
          "name": "_success",
          "type": "uint8"
        }
      ],
      "name": "SwapResult",
      "type": "event"
    },
    {
      "inputs": [],
      "name": "CIRCLE_INTEGRATION",
      "outputs": [
        {
          "internalType": "contract ICircleIntegration",
          "name": "",
          "type": "address"
        }
      ],
      "stateMutability": "view",
      "type": "function"
    },
    {
      "inputs": [],
      "name": "SWAP_ROUTER",
      "outputs": [
        {
          "internalType": "contract IUniswapV2Router02",
          "name": "",
          "type": "address"
        }
      ],
      "stateMutability": "view",
      "type": "function"
    },
    {
      "inputs": [],
      "name": "USDC_ADDRESS",
      "outputs": [
        {
          "internalType": "address",
          "name": "",
          "type": "address"
        }
      ],
      "stateMutability": "view",
      "type": "function"
    },
    {
      "inputs": [],
      "name": "WORMHOLE",
      "outputs": [
        {
          "internalType": "contract IWormhole",
          "name": "",
          "type": "address"
        }
      ],
      "stateMutability": "view",
      "type": "function"
    },
    {
      "inputs": [],
      "name": "WRAPPED_NATIVE_ADDRESS",
      "outputs": [
        {
          "internalType": "address",
          "name": "",
          "type": "address"
        }
      ],
      "stateMutability": "view",
      "type": "function"
    },
    {
      "inputs": [
        {
          "internalType": "bytes",
          "name": "encoded",
          "type": "bytes"
        }
      ],
      "name": "decodeSwapInParameters",
      "outputs": [
        {
          "components": [
            {
              "internalType": "uint256",
              "name": "estimatedAmount",
              "type": "uint256"
            },
            {
              "internalType": "bytes32",
              "name": "recipientAddress",
              "type": "bytes32"
            },
            {
              "internalType": "address[2]",
              "name": "path",
              "type": "address[2]"
            },
            {
              "internalType": "uint256",
              "name": "deadline",
              "type": "uint256"
            },
            {
              "internalType": "uint24",
              "name": "poolFee",
              "type": "uint24"
            },
            {
              "internalType": "uint256",
              "name": "relayerFee",
              "type": "uint256"
            }
          ],
          "internalType": "struct SwapHelper.RecvSwapInParameters",
          "name": "params",
          "type": "tuple"
        }
      ],
      "stateMutability": "pure",
      "type": "function"
    },
    {
      "stateMutability": "payable",
      "type": "receive"
    },
    {
      "inputs": [
        {
          "components": [
            {
              "internalType": "uint256",
              "name": "amountIn",
              "type": "uint256"
            },
            {
              "internalType": "uint256",
              "name": "amountOutMinimum",
              "type": "uint256"
            },
            {
              "internalType": "uint256",
              "name": "targetAmountOutMinimum",
              "type": "uint256"
            },
            {
              "internalType": "bytes32",
              "name": "targetChainRecipient",
              "type": "bytes32"
            },
            {
              "internalType": "uint256",
              "name": "deadline",
              "type": "uint256"
            },
            {
              "internalType": "uint24",
              "name": "poolFee",
              "type": "uint24"
            }
          ],
          "internalType": "struct SwapHelper.ExactInParameters",
          "name": "swapParams",
          "type": "tuple"
        },
        {
          "internalType": "address[]",
          "name": "path",
          "type": "address[]"
        },
        {
          "internalType": "uint256",
          "name": "relayerFee",
          "type": "uint256"
        },
        {
          "internalType": "uint16",
          "name": "targetChainId",
          "type": "uint16"
        },
        {
          "internalType": "bytes32",
          "name": "targetContractAddress",
          "type": "bytes32"
        }
      ],
      "name": "swapExactNativeInAndTransfer",
      "outputs": [],
      "stateMutability": "payable",
      "type": "function"
    },
    {
      "inputs": [
        {
          "components": [
            {
              "internalType": "bytes",
              "name": "encodedWormholeMessage",
              "type": "bytes"
            },
            {
              "internalType": "bytes",
              "name": "circleBridgeMessage",
              "type": "bytes"
            },
            {
              "internalType": "bytes",
              "name": "circleAttestation",
              "type": "bytes"
            }
          ],
          "internalType": "struct ICircleIntegration.RedeemParameters",
          "name": "redeemParams",
          "type": "tuple"
        }
      ],
      "name": "recvAndSwapExactNativeIn",
      "outputs": [
        {
          "internalType": "uint256[]",
          "name": "amounts",
          "type": "uint256[]"
        }
      ],
      "stateMutability": "payable",
      "type": "function"
    },
    {
      "inputs": [
        {
          "internalType": "uint16",
          "name": "chainId",
          "type": "uint16"
        },
        {
          "internalType": "bytes32",
          "name": "contractAddress",
          "type": "bytes32"
        }
      ],
      "name": "registerContract",
      "outputs": [],
      "stateMutability": "nonpayable",
      "type": "function"
    }
  ],
  "bytecode": "0x6101206040523480156200001257600080fd5b5060405162004522380380620045228339818101604052810190620000389190620001f2565b336000806101000a81548173ffffffffffffffffffffffffffffffffffffffff021916908373ffffffffffffffffffffffffffffffffffffffff1602179055508473ffffffffffffffffffffffffffffffffffffffff1660808173ffffffffffffffffffffffffffffffffffffffff16815250508373ffffffffffffffffffffffffffffffffffffffff1660a08173ffffffffffffffffffffffffffffffffffffffff16815250508273ffffffffffffffffffffffffffffffffffffffff1660c08173ffffffffffffffffffffffffffffffffffffffff16815250508173ffffffffffffffffffffffffffffffffffffffff1660e08173ffffffffffffffffffffffffffffffffffffffff16815250508073ffffffffffffffffffffffffffffffffffffffff166101008173ffffffffffffffffffffffffffffffffffffffff168152505050505050506200027a565b600080fd5b600073ffffffffffffffffffffffffffffffffffffffff82169050919050565b6000620001ba826200018d565b9050919050565b620001cc81620001ad565b8114620001d857600080fd5b50565b600081519050620001ec81620001c1565b92915050565b600080600080600060a0868803121562000211576200021062000188565b5b60006200022188828901620001db565b95505060206200023488828901620001db565b94505060406200024788828901620001db565b93505060606200025a88828901620001db565b92505060806200026d88828901620001db565b9150509295509295909350565b60805160a05160c05160e051610100516141c26200036060003960008181610b6b01528181610ed4015281816110bb0152818161114901526114bb0152600081816106420152818161078501528181610a6401528181610ad501528181610d1601528181611097015281816111ff015281816116210152611676015260008181610383015281816106e0015281816108460152818161164201526116c80152600081816102210152818161135a01526113eb015260008181610c3301528181610c6601528181610dc2015281816110df01528181611b8b0152611bb401526141c26000f3fe60806040526004361061008a5760003560e01c8063b38f92c511610059578063b38f92c514610152578063bb09d9b714610182578063be80a391146101ad578063c6005893146101d8578063ca56cde21461020357610091565b806335e78cfe1461009657806351e2d7b5146100c1578063741357a4146100ea578063943650e91461011557610091565b3661009157005b600080fd5b3480156100a257600080fd5b506100ab61021f565b6040516100b89190611fe9565b60405180910390f35b3480156100cd57600080fd5b506100e860048036038101906100e39190612088565b610243565b005b3480156100f657600080fd5b506100ff610381565b60405161010c91906120e9565b60405180910390f35b34801561012157600080fd5b5061013c6004803603810190610137919061224a565b6103a5565b6040516101499190612411565b60405180910390f35b61016c600480360381019061016791906124ee565b61063c565b60405161017991906125e6565b60405180910390f35b34801561018e57600080fd5b50610197611095565b6040516101a49190612617565b60405180910390f35b3480156101b957600080fd5b506101c26110b9565b6040516101cf9190612617565b60405180910390f35b3480156101e457600080fd5b506101ed6110dd565b6040516101fa9190612653565b60405180910390f35b61021d6004803603810190610218919061271e565b611101565b005b7f000000000000000000000000000000000000000000000000000000000000000081565b3373ffffffffffffffffffffffffffffffffffffffff1660008054906101000a900473ffffffffffffffffffffffffffffffffffffffff1673ffffffffffffffffffffffffffffffffffffffff16146102d1576040517f08c379a00000000000000000000000000000000000000000000000000000000081526004016102c890612818565b60405180910390fd5b6000801b8103610316576040517f08c379a000000000000000000000000000000000000000000000000000000000815260040161030d906128aa565b60405180910390fd5b60008261ffff160361035d576040517f08c379a000000000000000000000000000000000000000000000000000000000815260040161035490612916565b60405180910390fd5b80600160008461ffff1661ffff168152602001908152602001600020819055505050565b7f000000000000000000000000000000000000000000000000000000000000000081565b6103ad611f04565b6000806103c3828561177490919063ffffffff16565b90506001826103d29190612965565b915060018160ff161461041a576040517f08c379a000000000000000000000000000000000000000000000000000000000815260040161041190612a07565b60405180910390fd5b61042d82856117db90919063ffffffff16565b8360000181815250506020826104439190612965565b9150610458828561184290919063ffffffff16565b83602001818152505060208261046e9190612965565b915061048382856118a990919063ffffffff16565b836040015160006002811061049b5761049a612a27565b5b602002019073ffffffffffffffffffffffffffffffffffffffff16908173ffffffffffffffffffffffffffffffffffffffff16815250506014826104df9190612965565b91506104f482856118a990919063ffffffff16565b836040015160016002811061050c5761050b612a27565b5b602002019073ffffffffffffffffffffffffffffffffffffffff16908173ffffffffffffffffffffffffffffffffffffffff16815250506014826105509190612965565b915061056582856117db90919063ffffffff16565b83606001818152505060208261057b9190612965565b915060018261058a9190612965565b915061059f828561191f90919063ffffffff16565b61ffff16836080019062ffffff16908162ffffff16815250506002826105c59190612965565b91506105da82856117db90919063ffffffff16565b8360a00181815250506020826105f09190612965565b915083518214610635576040517f08c379a000000000000000000000000000000000000000000000000000000000815260040161062c90612aa2565b60405180910390fd5b5050919050565b606060007f000000000000000000000000000000000000000000000000000000000000000073ffffffffffffffffffffffffffffffffffffffff166370a08231306040518263ffffffff1660e01b81526004016106999190612617565b602060405180830381865afa1580156106b6573d6000803e3d6000fd5b505050506040513d601f19601f820116820180604052508101906106da9190612ad7565b905060007f000000000000000000000000000000000000000000000000000000000000000073ffffffffffffffffffffffffffffffffffffffff166357bf927b856040518263ffffffff1660e01b81526004016107379190612bea565b6000604051808303816000875af1158015610756573d6000803e3d6000fd5b505050506040513d6000823e3d601f19601f8201168201806040525081019061077f9190612df3565b905060007f000000000000000000000000000000000000000000000000000000000000000073ffffffffffffffffffffffffffffffffffffffff166370a08231306040518263ffffffff1660e01b81526004016107dc9190612617565b602060405180830381865afa1580156107f9573d6000803e3d6000fd5b505050506040513d601f19601f8201168201806040525081019061081d9190612ad7565b90506000838261082d9190612e3c565b9050600061083e8460e001516103a5565b9050600160007f000000000000000000000000000000000000000000000000000000000000000073ffffffffffffffffffffffffffffffffffffffff16638cf67ba987604001516040518263ffffffff1660e01b81526004016108a19190612e7f565b602060405180830381865afa1580156108be573d6000803e3d6000fd5b505050506040513d601f19601f820116820180604052508101906108e29190612eaf565b61ffff1661ffff168152602001908152602001600020548460a001511461093e576040517f08c379a000000000000000000000000000000000000000000000000000000000815260040161093590612f4e565b60405180910390fd5b6000600267ffffffffffffffff81111561095b5761095a61211f565b5b6040519080825280602002602001820160405280156109895781602001602082028036833780820191505090505b50905081604001516000600281106109a4576109a3612a27565b5b6020020151816000815181106109bd576109bc612a27565b5b602002602001019073ffffffffffffffffffffffffffffffffffffffff16908173ffffffffffffffffffffffffffffffffffffffff16815250508160400151600160028110610a0f57610a0e612a27565b5b602002015181600181518110610a2857610a27612a27565b5b602002602001019073ffffffffffffffffffffffffffffffffffffffff16908173ffffffffffffffffffffffffffffffffffffffff16815250507f000000000000000000000000000000000000000000000000000000000000000073ffffffffffffffffffffffffffffffffffffffff1681600081518110610aad57610aac612a27565b5b602002602001015173ffffffffffffffffffffffffffffffffffffffff16148015610b2a57507f000000000000000000000000000000000000000000000000000000000000000073ffffffffffffffffffffffffffffffffffffffff16856000015160001c73ffffffffffffffffffffffffffffffffffffffff16145b610b69576040517f08c379a0000000000000000000000000000000000000000000000000000000008152600401610b6090612fba565b60405180910390fd5b7f000000000000000000000000000000000000000000000000000000000000000073ffffffffffffffffffffffffffffffffffffffff1681600181518110610bb457610bb3612a27565b5b602002602001015173ffffffffffffffffffffffffffffffffffffffff1614610c12576040517f08c379a0000000000000000000000000000000000000000000000000000000008152600401610c099061304c565b60405180910390fd5b610c5881600081518110610c2957610c28612a27565b5b60200260200101517f000000000000000000000000000000000000000000000000000000000000000085611986565b6000826020015160001c90507f000000000000000000000000000000000000000000000000000000000000000073ffffffffffffffffffffffffffffffffffffffff166338ed1739858560000151853088606001516040518663ffffffff1660e01b8152600401610ccd959493929190613112565b6000604051808303816000875af1925050508015610d0e57506040513d6000823e3d601f19601f82011682018060405250810190610d0b919061322f565b60015b610e6d5760007f00000000000000000000000000000000000000000000000000000000000000009050610d66338560a001518373ffffffffffffffffffffffffffffffffffffffff16611ad59092919063ffffffff16565b610da0828560a0015187610d7a9190612e3c565b8373ffffffffffffffffffffffffffffffffffffffff16611ad59092919063ffffffff16565b610de88460400151600060028110610dbb57610dba612a27565b5b60200201517f00000000000000000000000000000000000000000000000000000000000000006000611986565b8173ffffffffffffffffffffffffffffffffffffffff167fda9a4112ac825b78f13f71800fb33cf4db7b43cc29219b09b7e495a75eedeade84600081518110610e3457610e33612a27565b5b6020026020010151338760a0015189610e4d9190612e3c565b6000604051610e5f94939291906132c0565b60405180910390a250611088565b6000858560a0015183600181518110610e8957610e88612a27565b5b6020026020010151610e9b9190613305565b610ea5919061338e565b905060008183600181518110610ebe57610ebd612a27565b5b6020026020010151610ed09190612e3c565b90507f000000000000000000000000000000000000000000000000000000000000000073ffffffffffffffffffffffffffffffffffffffff16632e1a7d4d84600181518110610f2257610f21612a27565b5b60200260200101516040518263ffffffff1660e01b8152600401610f4691906133bf565b600060405180830381600087803b158015610f6057600080fd5b505af1158015610f74573d6000803e3d6000fd5b505050508373ffffffffffffffffffffffffffffffffffffffff166108fc829081150290604051600060405180830381858888f19350505050158015610fbe573d6000803e3d6000fd5b503373ffffffffffffffffffffffffffffffffffffffff166108fc839081150290604051600060405180830381858888f19350505050158015611005573d6000803e3d6000fd5b508373ffffffffffffffffffffffffffffffffffffffff167fda9a4112ac825b78f13f71800fb33cf4db7b43cc29219b09b7e495a75eedeade8660018151811061105257611051612a27565b5b60200260200101513384600160405161106e9493929190613415565b60405180910390a2829a5050505050505050505050611090565b505050505050505b919050565b7f000000000000000000000000000000000000000000000000000000000000000081565b7f000000000000000000000000000000000000000000000000000000000000000081565b7f000000000000000000000000000000000000000000000000000000000000000081565b82866020013511611147576040517f08c379a000000000000000000000000000000000000000000000000000000000815260040161113e906134cc565b60405180910390fd5b7f000000000000000000000000000000000000000000000000000000000000000073ffffffffffffffffffffffffffffffffffffffff168585600081811061119257611191612a27565b5b90506020020160208101906111a79190613518565b73ffffffffffffffffffffffffffffffffffffffff16146111fd576040517f08c379a00000000000000000000000000000000000000000000000000000000081526004016111f4906135b7565b60405180910390fd5b7f000000000000000000000000000000000000000000000000000000000000000073ffffffffffffffffffffffffffffffffffffffff168585600181811061124857611247612a27565b5b905060200201602081019061125d9190613518565b73ffffffffffffffffffffffffffffffffffffffff16146112b3576040517f08c379a00000000000000000000000000000000000000000000000000000000081526004016112aa90613623565b60405180910390fd5b600485859050146112f9576040517f08c379a00000000000000000000000000000000000000000000000000000000081526004016112f09061368f565b60405180910390fd5b80600160008461ffff1661ffff1681526020019081526020016000205414611356576040517f08c379a000000000000000000000000000000000000000000000000000000000815260040161134d906136fb565b60405180910390fd5b60007f000000000000000000000000000000000000000000000000000000000000000073ffffffffffffffffffffffffffffffffffffffff16631a90a2196040518163ffffffff1660e01b8152600401602060405180830381865afa1580156113c3573d6000803e3d6000fd5b505050506040513d601f19601f820116820180604052508101906113e79190612ad7565b90507f000000000000000000000000000000000000000000000000000000000000000073ffffffffffffffffffffffffffffffffffffffff16631a90a2196040518163ffffffff1660e01b8152600401602060405180830381865afa158015611454573d6000803e3d6000fd5b505050506040513d601f19601f820116820180604052508101906114789190612ad7565b34116114b9576040517f08c379a00000000000000000000000000000000000000000000000000000000081526004016114b090613767565b60405180910390fd5b7f000000000000000000000000000000000000000000000000000000000000000073ffffffffffffffffffffffffffffffffffffffff1663d0e30db082346115019190612e3c565b6040518263ffffffff1660e01b81526004016000604051808303818588803b15801561152c57600080fd5b505af1158015611540573d6000803e3d6000fd5b5050505050600061157982346115569190612e3c565b8960200135898960009060029261156f93929190613791565b8c60800135611b5b565b90506000600189604001358a606001358a8a600281811061159d5761159c612a27565b5b90506020020160208101906115b29190613518565b8b8b60038181106115c6576115c5612a27565b5b90506020020160208101906115db9190613518565b8d608001358e60a00160208101906115f391906137f8565b8c60405160200161160b98979695949392919061391b565b60405160208183030381529060405290506116677f00000000000000000000000000000000000000000000000000000000000000007f000000000000000000000000000000000000000000000000000000000000000084611986565b600060405180608001604052807f000000000000000000000000000000000000000000000000000000000000000073ffffffffffffffffffffffffffffffffffffffff1681526020018481526020018761ffff1681526020018681525090507f000000000000000000000000000000000000000000000000000000000000000073ffffffffffffffffffffffffffffffffffffffff1663a2a1f04c826000856040518463ffffffff1660e01b815260040161172493929190613a8c565b6020604051808303816000875af1158015611743573d6000803e3d6000fd5b505050506040513d601f19601f820116820180604052508101906117679190613aca565b5050505050505050505050565b60006001826117839190612965565b835110156117c6576040517f08c379a00000000000000000000000000000000000000000000000000000000081526004016117bd90613b43565b60405180910390fd5b60008260018501015190508091505092915050565b60006020826117ea9190612965565b8351101561182d576040517f08c379a000000000000000000000000000000000000000000000000000000000815260040161182490613baf565b60405180910390fd5b60008260208501015190508091505092915050565b60006020826118519190612965565b83511015611894576040517f08c379a000000000000000000000000000000000000000000000000000000000815260040161188b90613c1b565b60405180910390fd5b60008260208501015190508091505092915050565b60006014826118b89190612965565b835110156118fb576040517f08c379a00000000000000000000000000000000000000000000000000000000081526004016118f290613c87565b60405180910390fd5b60006c01000000000000000000000000836020860101510490508091505092915050565b600060028261192e9190612965565b83511015611971576040517f08c379a000000000000000000000000000000000000000000000000000000000815260040161196890613cf3565b60405180910390fd5b60008260028501015190508091505092915050565b6000811480611a10575060008373ffffffffffffffffffffffffffffffffffffffff1663dd62ed3e30856040518363ffffffff1660e01b81526004016119cd929190613d13565b602060405180830381865afa1580156119ea573d6000803e3d6000fd5b505050506040513d601f19601f82011682018060405250810190611a0e9190612ad7565b145b611a4f576040517f08c379a0000000000000000000000000000000000000000000000000000000008152600401611a4690613dae565b60405180910390fd5b611ad08363095ea7b360e01b8484604051602401611a6e929190613dce565b604051602081830303815290604052907bffffffffffffffffffffffffffffffffffffffffffffffffffffffff19166020820180517bffffffffffffffffffffffffffffffffffffffffffffffffffffffff8381831617835250505050611c87565b505050565b611b568363a9059cbb60e01b8484604051602401611af4929190613dce565b604051602081830303815290604052907bffffffffffffffffffffffffffffffffffffffffffffffffffffffff19166020820180517bffffffffffffffffffffffffffffffffffffffffffffffffffffffff8381831617835250505050611c87565b505050565b6000611bb084846000818110611b7457611b73612a27565b5b9050602002016020810190611b899190613518565b7f000000000000000000000000000000000000000000000000000000000000000088611986565b60007f000000000000000000000000000000000000000000000000000000000000000073ffffffffffffffffffffffffffffffffffffffff166338ed17398888888830896040518763ffffffff1660e01b8152600401611c1596959493929190613e82565b6000604051808303816000875af1158015611c34573d6000803e3d6000fd5b505050506040513d6000823e3d601f19601f82011682018060405250810190611c5d919061322f565b905080600181518110611c7357611c72612a27565b5b602002602001015191505095945050505050565b6000611ce9826040518060400160405280602081526020017f5361666545524332303a206c6f772d6c6576656c2063616c6c206661696c65648152508573ffffffffffffffffffffffffffffffffffffffff16611d4e9092919063ffffffff16565b9050600081511115611d495780806020019051810190611d099190613f16565b611d48576040517f08c379a0000000000000000000000000000000000000000000000000000000008152600401611d3f90613fb5565b60405180910390fd5b5b505050565b6060611d5d8484600085611d66565b90509392505050565b606082471015611dab576040517f08c379a0000000000000000000000000000000000000000000000000000000008152600401611da290614047565b60405180910390fd5b611db485611e7a565b611df3576040517f08c379a0000000000000000000000000000000000000000000000000000000008152600401611dea906140b3565b60405180910390fd5b6000808673ffffffffffffffffffffffffffffffffffffffff168587604051611e1c919061410f565b60006040518083038185875af1925050503d8060008114611e59576040519150601f19603f3d011682016040523d82523d6000602084013e611e5e565b606091505b5091509150611e6e828286611e9d565b92505050949350505050565b6000808273ffffffffffffffffffffffffffffffffffffffff163b119050919050565b60608315611ead57829050611efd565b600083511115611ec05782518084602001fd5b816040517f08c379a0000000000000000000000000000000000000000000000000000000008152600401611ef4919061416a565b60405180910390fd5b9392505050565b6040518060c001604052806000815260200160008019168152602001611f28611f48565b815260200160008152602001600062ffffff168152602001600081525090565b6040518060400160405280600290602082028036833780820191505090505090565b600073ffffffffffffffffffffffffffffffffffffffff82169050919050565b6000819050919050565b6000611faf611faa611fa584611f6a565b611f8a565b611f6a565b9050919050565b6000611fc182611f94565b9050919050565b6000611fd382611fb6565b9050919050565b611fe381611fc8565b82525050565b6000602082019050611ffe6000830184611fda565b92915050565b6000604051905090565b600080fd5b600080fd5b600061ffff82169050919050565b61202f81612018565b811461203a57600080fd5b50565b60008135905061204c81612026565b92915050565b6000819050919050565b61206581612052565b811461207057600080fd5b50565b6000813590506120828161205c565b92915050565b6000806040838503121561209f5761209e61200e565b5b60006120ad8582860161203d565b92505060206120be85828601612073565b9150509250929050565b60006120d382611fb6565b9050919050565b6120e3816120c8565b82525050565b60006020820190506120fe60008301846120da565b92915050565b600080fd5b600080fd5b6000601f19601f8301169050919050565b7f4e487b7100000000000000000000000000000000000000000000000000000000600052604160045260246000fd5b6121578261210e565b810181811067ffffffffffffffff821117156121765761217561211f565b5b80604052505050565b6000612189612004565b9050612195828261214e565b919050565b600067ffffffffffffffff8211156121b5576121b461211f565b5b6121be8261210e565b9050602081019050919050565b82818337600083830152505050565b60006121ed6121e88461219a565b61217f565b90508281526020810184848401111561220957612208612109565b5b6122148482856121cb565b509392505050565b600082601f83011261223157612230612104565b5b81356122418482602086016121da565b91505092915050565b6000602082840312156122605761225f61200e565b5b600082013567ffffffffffffffff81111561227e5761227d612013565b5b61228a8482850161221c565b91505092915050565b6000819050919050565b6122a681612293565b82525050565b6122b581612052565b82525050565b600060029050919050565b600081905092915050565b6000819050919050565b60006122e682611f6a565b9050919050565b6122f6816122db565b82525050565b600061230883836122ed565b60208301905092915050565b6000602082019050919050565b61232a816122bb565b61233481846122c6565b925061233f826122d1565b8060005b8381101561237057815161235787826122fc565b965061236283612314565b925050600181019050612343565b505050505050565b600062ffffff82169050919050565b61239081612378565b82525050565b60e0820160008201516123ac600085018261229d565b5060208201516123bf60208501826122ac565b5060408201516123d26040850182612321565b5060608201516123e5608085018261229d565b5060808201516123f860a0850182612387565b5060a082015161240b60c085018261229d565b50505050565b600060e0820190506124266000830184612396565b92915050565b600080fd5b600080fd5b60006060828403121561244c5761244b61242c565b5b612456606061217f565b9050600082013567ffffffffffffffff81111561247657612475612431565b5b6124828482850161221c565b600083015250602082013567ffffffffffffffff8111156124a6576124a5612431565b5b6124b28482850161221c565b602083015250604082013567ffffffffffffffff8111156124d6576124d5612431565b5b6124e28482850161221c565b60408301525092915050565b6000602082840312156125045761250361200e565b5b600082013567ffffffffffffffff81111561252257612521612013565b5b61252e84828501612436565b91505092915050565b600081519050919050565b600082825260208201905092915050565b6000819050602082019050919050565b600061256f838361229d565b60208301905092915050565b6000602082019050919050565b600061259382612537565b61259d8185612542565b93506125a883612553565b8060005b838110156125d95781516125c08882612563565b97506125cb8361257b565b9250506001810190506125ac565b5085935050505092915050565b600060208201905081810360008301526126008184612588565b905092915050565b612611816122db565b82525050565b600060208201905061262c6000830184612608565b92915050565b600061263d82611fb6565b9050919050565b61264d81612632565b82525050565b60006020820190506126686000830184612644565b92915050565b600080fd5b600060c082840312156126895761268861266e565b5b81905092915050565b600080fd5b600080fd5b60008083601f8401126126b2576126b1612104565b5b8235905067ffffffffffffffff8111156126cf576126ce612692565b5b6020830191508360208202830111156126eb576126ea612697565b5b9250929050565b6126fb81612293565b811461270657600080fd5b50565b600081359050612718816126f2565b92915050565b600080600080600080610140878903121561273c5761273b61200e565b5b600061274a89828a01612673565b96505060c087013567ffffffffffffffff81111561276b5761276a612013565b5b61277789828a0161269c565b955095505060e061278a89828a01612709565b93505061010061279c89828a0161203d565b9250506101206127ae89828a01612073565b9150509295509295509295565b600082825260208201905092915050565b7f63616c6c6572206e6f7420746865206465706c6f796572000000000000000000600082015250565b60006128026017836127bb565b915061280d826127cc565b602082019050919050565b60006020820190508181036000830152612831816127f5565b9050919050565b7f656d6974746572416464726573732063616e6e6f7420657175616c206279746560008201527f7333322830290000000000000000000000000000000000000000000000000000602082015250565b60006128946026836127bb565b915061289f82612838565b604082019050919050565b600060208201905081810360008301526128c381612887565b9050919050565b7f636861696e4964206d757374206265203e203000000000000000000000000000600082015250565b60006129006013836127bb565b915061290b826128ca565b602082019050919050565b6000602082019050818103600083015261292f816128f3565b9050919050565b7f4e487b7100000000000000000000000000000000000000000000000000000000600052601160045260246000fd5b600061297082612293565b915061297b83612293565b9250827fffffffffffffffffffffffffffffffffffffffffffffffffffffffffffffffff038211156129b0576129af612936565b5b828201905092915050565b7f696e76616c6964207061796c6f61640000000000000000000000000000000000600082015250565b60006129f1600f836127bb565b91506129fc826129bb565b602082019050919050565b60006020820190508181036000830152612a20816129e4565b9050919050565b7f4e487b7100000000000000000000000000000000000000000000000000000000600052603260045260246000fd5b7f696e76616c69642073776170207061796c6f6164000000000000000000000000600082015250565b6000612a8c6014836127bb565b9150612a9782612a56565b602082019050919050565b60006020820190508181036000830152612abb81612a7f565b9050919050565b600081519050612ad1816126f2565b92915050565b600060208284031215612aed57612aec61200e565b5b6000612afb84828501612ac2565b91505092915050565b600081519050919050565b600082825260208201905092915050565b60005b83811015612b3e578082015181840152602081019050612b23565b83811115612b4d576000848401525b50505050565b6000612b5e82612b04565b612b688185612b0f565b9350612b78818560208601612b20565b612b818161210e565b840191505092915050565b60006060830160008301518482036000860152612ba98282612b53565b91505060208301518482036020860152612bc38282612b53565b91505060408301518482036040860152612bdd8282612b53565b9150508091505092915050565b60006020820190508181036000830152612c048184612b8c565b905092915050565b600081519050612c1b8161205c565b92915050565b600063ffffffff82169050919050565b612c3a81612c21565b8114612c4557600080fd5b50565b600081519050612c5781612c31565b92915050565b600067ffffffffffffffff82169050919050565b612c7a81612c5d565b8114612c8557600080fd5b50565b600081519050612c9781612c71565b92915050565b6000612cb0612cab8461219a565b61217f565b905082815260208101848484011115612ccc57612ccb612109565b5b612cd7848285612b20565b509392505050565b600082601f830112612cf457612cf3612104565b5b8151612d04848260208601612c9d565b91505092915050565b60006101008284031215612d2457612d2361242c565b5b612d2f61010061217f565b90506000612d3f84828501612c0c565b6000830152506020612d5384828501612ac2565b6020830152506040612d6784828501612c48565b6040830152506060612d7b84828501612c48565b6060830152506080612d8f84828501612c88565b60808301525060a0612da384828501612c0c565b60a08301525060c0612db784828501612c0c565b60c08301525060e082015167ffffffffffffffff811115612ddb57612dda612431565b5b612de784828501612cdf565b60e08301525092915050565b600060208284031215612e0957612e0861200e565b5b600082015167ffffffffffffffff811115612e2757612e26612013565b5b612e3384828501612d0d565b91505092915050565b6000612e4782612293565b9150612e5283612293565b925082821015612e6557612e64612936565b5b828203905092915050565b612e7981612c21565b82525050565b6000602082019050612e946000830184612e70565b92915050565b600081519050612ea981612026565b92915050565b600060208284031215612ec557612ec461200e565b5b6000612ed384828501612e9a565b91505092915050565b7f66726f6d41646472657373206973206e6f74206120726567697374657265642060008201527f636f6e7472616374000000000000000000000000000000000000000000000000602082015250565b6000612f386028836127bb565b9150612f4382612edc565b604082019050919050565b60006020820190508181036000830152612f6781612f2b565b9050919050565b7f746f6b656e496e206d7573742062652055534443000000000000000000000000600082015250565b6000612fa46014836127bb565b9150612faf82612f6e565b602082019050919050565b60006020820190508181036000830152612fd381612f97565b9050919050565b7f746f6b656e4f7574206d7573742062652077726170706564206e61746976652060008201527f6173736574000000000000000000000000000000000000000000000000000000602082015250565b60006130366025836127bb565b915061304182612fda565b604082019050919050565b6000602082019050818103600083015261306581613029565b9050919050565b61307581612293565b82525050565b600081519050919050565b600082825260208201905092915050565b6000819050602082019050919050565b6000602082019050919050565b60006130bf8261307b565b6130c98185613086565b93506130d483613097565b8060005b838110156131055781516130ec88826122fc565b97506130f7836130a7565b9250506001810190506130d8565b5085935050505092915050565b600060a082019050613127600083018861306c565b613134602083018761306c565b818103604083015261314681866130b4565b90506131556060830185612608565b613162608083018461306c565b9695505050505050565b600067ffffffffffffffff8211156131875761318661211f565b5b602082029050602081019050919050565b60006131ab6131a68461316c565b61217f565b905080838252602082019050602084028301858111156131ce576131cd612697565b5b835b818110156131f757806131e38882612ac2565b8452602084019350506020810190506131d0565b5050509392505050565b600082601f83011261321657613215612104565b5b8151613226848260208601613198565b91505092915050565b6000602082840312156132455761324461200e565b5b600082015167ffffffffffffffff81111561326357613262612013565b5b61326f84828501613201565b91505092915050565b6000819050919050565b600060ff82169050919050565b60006132aa6132a56132a084613278565b611f8a565b613282565b9050919050565b6132ba8161328f565b82525050565b60006080820190506132d56000830187612608565b6132e26020830186612608565b6132ef604083018561306c565b6132fc60608301846132b1565b95945050505050565b600061331082612293565b915061331b83612293565b9250817fffffffffffffffffffffffffffffffffffffffffffffffffffffffffffffffff048311821515161561335457613353612936565b5b828202905092915050565b7f4e487b7100000000000000000000000000000000000000000000000000000000600052601260045260246000fd5b600061339982612293565b91506133a483612293565b9250826133b4576133b361335f565b5b828204905092915050565b60006020820190506133d4600083018461306c565b92915050565b6000819050919050565b60006133ff6133fa6133f5846133da565b611f8a565b613282565b9050919050565b61340f816133e4565b82525050565b600060808201905061342a6000830187612608565b6134376020830186612608565b613444604083018561306c565b6134516060830184613406565b95945050505050565b7f696e73756666696369656e7420616d6f756e744f75744d696e696d756d20746f60008201527f207061792072656c617965720000000000000000000000000000000000000000602082015250565b60006134b6602c836127bb565b91506134c18261345a565b604082019050919050565b600060208201905081810360008301526134e5816134a9565b9050919050565b6134f5816122db565b811461350057600080fd5b50565b600081359050613512816134ec565b92915050565b60006020828403121561352e5761352d61200e565b5b600061353c84828501613503565b91505092915050565b7f746f6b656e496e206d7573742062652077726170706564206e6174697665206160008201527f7373657400000000000000000000000000000000000000000000000000000000602082015250565b60006135a16024836127bb565b91506135ac82613545565b604082019050919050565b600060208201905081810360008301526135d081613594565b9050919050565b7f746f6b656e4f7574206d75737420626520555344430000000000000000000000600082015250565b600061360d6015836127bb565b9150613618826135d7565b602082019050919050565b6000602082019050818103600083015261363c81613600565b9050919050565b7f696e76616c696420706174680000000000000000000000000000000000000000600082015250565b6000613679600c836127bb565b915061368482613643565b602082019050919050565b600060208201905081810360008301526136a88161366c565b9050919050565b7f74617267657420636f6e7472616374206e6f7420726567697374657265640000600082015250565b60006136e5601e836127bb565b91506136f0826136af565b602082019050919050565b60006020820190508181036000830152613714816136d8565b9050919050565b7f696e73756666696369656e742076616c75650000000000000000000000000000600082015250565b60006137516012836127bb565b915061375c8261371b565b602082019050919050565b6000602082019050818103600083015261378081613744565b9050919050565b600080fd5b600080fd5b600080858511156137a5576137a4613787565b5b838611156137b6576137b561378c565b5b6020850283019150848603905094509492505050565b6137d581612378565b81146137e057600080fd5b50565b6000813590506137f2816137cc565b92915050565b60006020828403121561380e5761380d61200e565b5b600061381c848285016137e3565b91505092915050565b60008160f81b9050919050565b600061383d82613825565b9050919050565b61385561385082613282565b613832565b82525050565b6000819050919050565b61387661387182612293565b61385b565b82525050565b6000819050919050565b61389761389282612052565b61387c565b82525050565b60008160601b9050919050565b60006138b58261389d565b9050919050565b60006138c7826138aa565b9050919050565b6138df6138da826122db565b6138bc565b82525050565b60008160e81b9050919050565b60006138fd826138e5565b9050919050565b61391561391082612378565b6138f2565b82525050565b6000613927828b613844565b600182019150613937828a613865565b6020820191506139478289613886565b60208201915061395782886138ce565b60148201915061396782876138ce565b6014820191506139778286613865565b6020820191506139878285613904565b6003820191506139978284613865565b6020820191508190509998505050505050505050565b6139b681612018565b82525050565b6080820160008201516139d260008501826122ed565b5060208201516139e5602085018261229d565b5060408201516139f860408501826139ad565b506060820151613a0b60608501826122ac565b50505050565b6000613a2c613a27613a2284613278565b611f8a565b612c21565b9050919050565b613a3c81613a11565b82525050565b600082825260208201905092915050565b6000613a5e82612b04565b613a688185613a42565b9350613a78818560208601612b20565b613a818161210e565b840191505092915050565b600060c082019050613aa160008301866139bc565b613aae6080830185613a33565b81810360a0830152613ac08184613a53565b9050949350505050565b600060208284031215613ae057613adf61200e565b5b6000613aee84828501612c88565b91505092915050565b7f746f55696e74385f6f75744f66426f756e647300000000000000000000000000600082015250565b6000613b2d6013836127bb565b9150613b3882613af7565b602082019050919050565b60006020820190508181036000830152613b5c81613b20565b9050919050565b7f746f55696e743235365f6f75744f66426f756e64730000000000000000000000600082015250565b6000613b996015836127bb565b9150613ba482613b63565b602082019050919050565b60006020820190508181036000830152613bc881613b8c565b9050919050565b7f746f427974657333325f6f75744f66426f756e64730000000000000000000000600082015250565b6000613c056015836127bb565b9150613c1082613bcf565b602082019050919050565b60006020820190508181036000830152613c3481613bf8565b9050919050565b7f746f416464726573735f6f75744f66426f756e64730000000000000000000000600082015250565b6000613c716015836127bb565b9150613c7c82613c3b565b602082019050919050565b60006020820190508181036000830152613ca081613c64565b9050919050565b7f746f55696e7431365f6f75744f66426f756e6473000000000000000000000000600082015250565b6000613cdd6014836127bb565b9150613ce882613ca7565b602082019050919050565b60006020820190508181036000830152613d0c81613cd0565b9050919050565b6000604082019050613d286000830185612608565b613d356020830184612608565b9392505050565b7f5361666545524332303a20617070726f76652066726f6d206e6f6e2d7a65726f60008201527f20746f206e6f6e2d7a65726f20616c6c6f77616e636500000000000000000000602082015250565b6000613d986036836127bb565b9150613da382613d3c565b604082019050919050565b60006020820190508181036000830152613dc781613d8b565b9050919050565b6000604082019050613de36000830185612608565b613df0602083018461306c565b9392505050565b6000819050919050565b6000613e106020840184613503565b905092915050565b6000602082019050919050565b6000613e318385613086565b9350613e3c82613df7565b8060005b85811015613e7557613e528284613e01565b613e5c88826122fc565b9750613e6783613e18565b925050600181019050613e40565b5085925050509392505050565b600060a082019050613e97600083018961306c565b613ea4602083018861306c565b8181036040830152613eb7818688613e25565b9050613ec66060830185612608565b613ed3608083018461306c565b979650505050505050565b60008115159050919050565b613ef381613ede565b8114613efe57600080fd5b50565b600081519050613f1081613eea565b92915050565b600060208284031215613f2c57613f2b61200e565b5b6000613f3a84828501613f01565b91505092915050565b7f5361666545524332303a204552433230206f7065726174696f6e20646964206e60008201527f6f74207375636365656400000000000000000000000000000000000000000000602082015250565b6000613f9f602a836127bb565b9150613faa82613f43565b604082019050919050565b60006020820190508181036000830152613fce81613f92565b9050919050565b7f416464726573733a20696e73756666696369656e742062616c616e636520666f60008201527f722063616c6c0000000000000000000000000000000000000000000000000000602082015250565b60006140316026836127bb565b915061403c82613fd5565b604082019050919050565b6000602082019050818103600083015261406081614024565b9050919050565b7f416464726573733a2063616c6c20746f206e6f6e2d636f6e7472616374000000600082015250565b600061409d601d836127bb565b91506140a882614067565b602082019050919050565b600060208201905081810360008301526140cc81614090565b9050919050565b600081905092915050565b60006140e982612b04565b6140f381856140d3565b9350614103818560208601612b20565b80840191505092915050565b600061411b82846140de565b915081905092915050565b600081519050919050565b600061413c82614126565b61414681856127bb565b9350614156818560208601612b20565b61415f8161210e565b840191505092915050565b600060208201905081810360008301526141848184614131565b90509291505056fea264697066735822122014531af5a0186a3a98ff40e314bde7fb7ce64a0058da75851e0fe6222c86cc0964736f6c634300080d0033",
  "immutableReferences": {
    "1224": [
      {
        "length": 32,
        "start": 3123
      },
      {
        "length": 32,
        "start": 3174
      },
      {
        "length": 32,
        "start": 3522
      },
      {
        "length": 32,
        "start": 4319
      },
      {
        "length": 32,
        "start": 7051
      },
      {
        "length": 32,
        "start": 7092
      }
    ],
    "1227": [
      {
        "length": 32,
        "start": 545
      },
      {
        "length": 32,
        "start": 4954
      },
      {
        "length": 32,
        "start": 5099
      }
    ],
    "1230": [
      {
        "length": 32,
        "start": 899
      },
      {
        "length": 32,
        "start": 1760
      },
      {
        "length": 32,
        "start": 2118
      },
      {
        "length": 32,
        "start": 5698
      },
      {
        "length": 32,
        "start": 5832
      }
    ],
    "1232": [
      {
        "length": 32,
        "start": 1602
      },
      {
        "length": 32,
        "start": 1925
      },
      {
        "length": 32,
        "start": 2660
      },
      {
        "length": 32,
        "start": 2773
      },
      {
        "length": 32,
        "start": 3350
      },
      {
        "length": 32,
        "start": 4247
      },
      {
        "length": 32,
        "start": 4607
      },
      {
        "length": 32,
        "start": 5665
      },
      {
        "length": 32,
        "start": 5750
      }
    ],
    "1234": [
      {
        "length": 32,
        "start": 2923
      },
      {
        "length": 32,
        "start": 3796
      },
      {
        "length": 32,
        "start": 4283
      },
      {
        "length": 32,
        "start": 4425
      },
      {
        "length": 32,
        "start": 5307
      }
    ]
  },
  "source": "// SPDX-License-Identifier: Apache 2\n\npragma solidity ^0.8.13;\n\nimport \"./libraries/BytesLib.sol\";\nimport \"@openzeppelin/contracts/token/ERC20/IERC20.sol\";\nimport \"@openzeppelin/contracts/token/ERC20/utils/SafeERC20.sol\";\nimport \"@uniswap/v2-periphery/contracts/interfaces/IUniswapV2Router02.sol\";\n\nimport \"./interfaces/IWormhole.sol\";\nimport \"./interfaces/IWETH.sol\";\nimport \"./interfaces/ICircleIntegration.sol\";\n\nimport \"./SwapHelper.sol\";\n\n/// @title A cross-chain UniswapV2 example\n/// @notice Swaps against UniswapV2 pools and uses Wormhole's USDC Bridge integration\n/// to mint and burn USDC cross-chain\ncontract CrossChainSwapV2 is SwapHelper {\n    using SafeERC20 for IERC20;\n    using BytesLib for bytes;\n\n    // contract deployer\n    address deployer;\n\n    // contracts\n    IUniswapV2Router02 public immutable SWAP_ROUTER;\n    IWormhole public immutable WORMHOLE;\n    ICircleIntegration public immutable CIRCLE_INTEGRATION;\n\n    // token addresses\n    address public immutable USDC_ADDRESS;\n    address public immutable WRAPPED_NATIVE_ADDRESS;\n\n    // registered nativeswap contracts\n    mapping(uint16 => bytes32) registeredContracts;\n\n    constructor(\n        address _swapRouterAddress,\n        address _wormholeAddress,\n        address _usdcIntegrationAddress,\n        address _usdcAddress,\n        address _wrappedNativeAddress\n    ) {\n        deployer = msg.sender;\n        SWAP_ROUTER = IUniswapV2Router02(_swapRouterAddress);\n        WORMHOLE = IWormhole(_wormholeAddress);\n        CIRCLE_INTEGRATION = ICircleIntegration(_usdcIntegrationAddress);\n        USDC_ADDRESS = _usdcAddress;\n        WRAPPED_NATIVE_ADDRESS = _wrappedNativeAddress;\n    }\n\n    /// @dev Used to communicate information about executed swaps to UI/user\n    event SwapResult(\n        address indexed _recipient,\n        address _tokenOut,\n        address _from,\n        uint256 _amountOut,\n        uint8 _success\n    );\n\n    /// @dev Calls _swapExactInBeforeTransfer and encodes custom payload with\n    /// instructions for executing native asset swaps on the destination chain\n    function swapExactNativeInAndTransfer(\n        ExactInParameters calldata swapParams,\n        address[] calldata path,\n        uint256 relayerFee,\n        uint16 targetChainId,\n        bytes32 targetContractAddress\n    ) external payable {\n        require(\n            swapParams.amountOutMinimum > relayerFee,\n            \"insufficient amountOutMinimum to pay relayer\"\n        );\n        require(\n            path[0]==WRAPPED_NATIVE_ADDRESS,\n            \"tokenIn must be wrapped native asset\"\n        );\n        require(\n            path[1]==USDC_ADDRESS,\n            \"tokenOut must be USDC\"\n        );\n        require(path.length == 4, \"invalid path\");\n        require(\n            registeredContracts[targetChainId] == targetContractAddress,\n            \"target contract not registered\"\n        );\n\n        // cache wormhole fee and check msg.value\n        uint256 wormholeFee = WORMHOLE.messageFee();\n        require(msg.value > WORMHOLE.messageFee(), \"insufficient value\");\n\n        // wrap native asset\n        IWETH(WRAPPED_NATIVE_ADDRESS).deposit{\n            value : msg.value - wormholeFee\n        }();\n\n        // peform the first swap\n        uint256 amountOut = _swapExactInBeforeTransfer(\n            msg.value - wormholeFee,\n            swapParams.amountOutMinimum,\n            path[0:2],\n            swapParams.deadline\n        );\n\n        // create payload with target swap instructions\n        bytes memory payload = abi.encodePacked(\n            uint8(1),\n            swapParams.targetAmountOutMinimum,\n            swapParams.targetChainRecipient,\n            path[2],\n            path[3],\n            swapParams.deadline,\n            swapParams.poolFee,\n            relayerFee\n        );\n\n        // approve USDC integration contract to spend USDC\n        SafeERC20.safeApprove(\n            IERC20(USDC_ADDRESS),\n            address(CIRCLE_INTEGRATION),\n            amountOut\n        );\n\n        // create transfer params used to invoke the circle integration contract\n        ICircleIntegration.TransferParameters memory transferParams =\n            ICircleIntegration.TransferParameters({\n                token: USDC_ADDRESS,\n                amount: amountOut,\n                targetChain: targetChainId,\n                mintRecipient: targetContractAddress\n            });\n\n        // Call the USDC integration contract to burn the USDC\n        // and emit a wormhole message.\n        CIRCLE_INTEGRATION.transferTokensWithPayload(\n            transferParams,\n            0, // batchId=0 to opt out of batching\n            payload\n        );\n    }\n\n    function _swapExactInBeforeTransfer(\n        uint256 amountIn,\n        uint256 amountOutMinimum,\n        address[] calldata path,\n        uint256 deadline\n    ) internal returns (uint256 amountOut) {\n        // approve the router to spend tokens\n        SafeERC20.safeApprove(\n            IERC20(path[0]),\n            address(SWAP_ROUTER),\n            amountIn\n        );\n\n        // perform the swap\n        uint256[] memory amounts = SWAP_ROUTER.swapExactTokensForTokens(\n            amountIn,\n            amountOutMinimum,\n            path,\n            address(this),\n            deadline\n        );\n        amountOut = amounts[1];\n    }\n\n    /// @dev Mints USDC and executes exactIn native asset swap and pays the relayer\n    function recvAndSwapExactNativeIn(\n        ICircleIntegration.RedeemParameters memory redeemParams\n    ) external payable returns (uint256[] memory amounts) {\n        // check USDC balance before minting\n        uint256 balanceBefore = IERC20(USDC_ADDRESS).balanceOf(address(this));\n\n        // mint USDC to this contract\n        ICircleIntegration.DepositWithPayload memory deposit = CIRCLE_INTEGRATION.redeemTokensWithPayload(\n            redeemParams\n        );\n\n        // check USDC balance after minting\n        uint256 balanceAfter = IERC20(USDC_ADDRESS).balanceOf(address(this));\n        uint256 swapAmount = balanceAfter - balanceBefore;\n\n        // parse swap params from USDC integration contract payload\n        RecvSwapInParameters memory swapParams = decodeSwapInParameters(\n            deposit.payload\n        );\n\n        // verify that the sender is a registered contract\n        require(\n            deposit.fromAddress == registeredContracts[\n                CIRCLE_INTEGRATION.getChainIdFromDomain(deposit.sourceDomain)\n            ],\n            \"fromAddress is not a registered contract\"\n        );\n\n        // create dynamic address array, uniswap won't take fixed size array\n        address[] memory uniPath = new address[](2);\n        uniPath[0] = swapParams.path[0];\n        uniPath[1] = swapParams.path[1];\n\n        // sanity check path\n        require(\n            uniPath[0]==USDC_ADDRESS &&\n            address(uint160(uint256(deposit.token)))==USDC_ADDRESS,\n            \"tokenIn must be USDC\"\n        );\n        require(\n            uniPath[1]==WRAPPED_NATIVE_ADDRESS,\n            \"tokenOut must be wrapped native asset\"\n        );\n\n        // approve the router to spend tokens\n        SafeERC20.safeApprove(\n            IERC20(uniPath[0]),\n            address(SWAP_ROUTER),\n            swapAmount\n        );\n\n        // convert recipient bytes32 address to type address\n        address recipientAddress = address(uint160(uint256(swapParams.recipientAddress)));\n\n        // try to execute the swap\n        try SWAP_ROUTER.swapExactTokensForTokens(\n            swapAmount,\n            swapParams.estimatedAmount,\n            uniPath,\n            address(this),\n            swapParams.deadline\n        ) returns (uint256[] memory amounts) {\n            // calculate how much to pay the relayer in the native token\n            uint256 nativeRelayerFee = amounts[1] * swapParams.relayerFee / swapAmount;\n            uint256 nativeAmountOut = amounts[1] - nativeRelayerFee;\n\n            // unwrap native and send to recipient\n            IWETH(WRAPPED_NATIVE_ADDRESS).withdraw(amounts[1]);\n            payable(recipientAddress).transfer(nativeAmountOut);\n\n            /// pay the relayer in the native token\n            payable(msg.sender).transfer(nativeRelayerFee);\n\n            // used in UI to tell user they're getting\n            // their desired token\n            emit SwapResult(\n                recipientAddress,\n                uniPath[1],\n                msg.sender,\n                nativeAmountOut,\n                1\n            );\n            return amounts;\n        } catch {\n            // pay relayer in the USDC since the swap failed\n            IERC20 feeToken = IERC20(USDC_ADDRESS);\n            feeToken.safeTransfer(msg.sender, swapParams.relayerFee);\n\n            // swap failed - return USDC to recipient\n            feeToken.safeTransfer(\n                recipientAddress,\n                swapAmount - swapParams.relayerFee\n            );\n\n            // set the Uniswap allowance to zero\n             SafeERC20.safeApprove(\n                IERC20(swapParams.path[0]),\n                address(SWAP_ROUTER),\n                0\n            );\n\n            // used in UI to tell user theyere getting\n            // USDC instead of their desired native asset\n            emit SwapResult(\n                recipientAddress,\n                uniPath[0],\n                msg.sender,\n                swapAmount - swapParams.relayerFee,\n                0\n            );\n        }\n    }\n\n    /// @dev `registerContract` serves to save trusted circle relayer contract addresses\n    function registerContract(\n        uint16 chainId,\n        bytes32 contractAddress\n    ) public onlyDeployer {\n        // sanity check both input arguments\n        require(\n            contractAddress != bytes32(0),\n            \"emitterAddress cannot equal bytes32(0)\"\n        );\n        require(chainId != 0, \"chainId must be > 0\");\n\n        // update the registeredContracts state variable\n        registeredContracts[chainId] = contractAddress;\n    }\n\n    modifier onlyDeployer() {\n        require(deployer == msg.sender, \"caller not the deployer\");\n        _;\n    }\n\n    // necessary for receiving native assets\n    receive() external payable {}\n}\n",
  "sourcePath": "/home/kpeters/repos/example-nativeswap-usdc/contracts/contracts/CrossChainSwapV2.sol",
  "compiler": {
    "name": "solc",
    "version": "0.8.13+commit.abaa5c0e.Emscripten.clang"
  },
  "schemaVersion": "3.4.4",
  "updatedAt": "2022-12-22T17:38:46.910Z",
  "devdoc": {
    "events": {
      "SwapResult(address,address,address,uint256,uint8)": {
        "details": "Used to communicate information about executed swaps to UI/user"
      }
    },
    "kind": "dev",
    "methods": {
      "recvAndSwapExactNativeIn((bytes,bytes,bytes))": {
        "details": "Mints USDC and executes exactIn native asset swap and pays the relayer"
      },
      "registerContract(uint16,bytes32)": {
        "details": "`registerContract` serves to save trusted circle relayer contract addresses"
      },
      "swapExactNativeInAndTransfer((uint256,uint256,uint256,bytes32,uint256,uint24),address[],uint256,uint16,bytes32)": {
        "details": "Calls _swapExactInBeforeTransfer and encodes custom payload with instructions for executing native asset swaps on the destination chain"
      }
    },
    "title": "A cross-chain UniswapV2 example",
    "version": 1
  },
  "userdoc": {
    "kind": "user",
    "methods": {},
    "notice": "Swaps against UniswapV2 pools and uses Wormhole's USDC Bridge integration to mint and burn USDC cross-chain",
    "version": 1
  }
}