{
  "contractName": "CrossChainSwapV3",
  "abi": [
    {
      "inputs": [
        {
          "internalType": "address",
          "name": "_swapRouterAddress",
          "type": "address"
        },
        {
          "internalType": "address",
          "name": "_wormholeAddress",
          "type": "address"
        },
        {
          "internalType": "address",
          "name": "_usdcIntegrationAddress",
          "type": "address"
        },
        {
          "internalType": "address",
          "name": "_usdcAddress",
          "type": "address"
        },
        {
          "internalType": "address",
          "name": "_wrappedNativeAddress",
          "type": "address"
        }
      ],
      "stateMutability": "nonpayable",
      "type": "constructor"
    },
    {
      "anonymous": false,
      "inputs": [
        {
          "indexed": true,
          "internalType": "address",
          "name": "_recipient",
          "type": "address"
        },
        {
          "indexed": false,
          "internalType": "address",
          "name": "_tokenOut",
          "type": "address"
        },
        {
          "indexed": false,
          "internalType": "address",
          "name": "_from",
          "type": "address"
        },
        {
          "indexed": false,
          "internalType": "uint256",
          "name": "_amountOut",
          "type": "uint256"
        },
        {
          "indexed": false,
          "internalType": "uint8",
          "name": "_success",
          "type": "uint8"
        }
      ],
      "name": "SwapResult",
      "type": "event"
    },
    {
      "inputs": [],
      "name": "CIRCLE_INTEGRATION",
      "outputs": [
        {
          "internalType": "contract ICircleIntegration",
          "name": "",
          "type": "address"
        }
      ],
      "stateMutability": "view",
      "type": "function"
    },
    {
      "inputs": [],
      "name": "SWAP_ROUTER",
      "outputs": [
        {
          "internalType": "contract IUniswapRouter",
          "name": "",
          "type": "address"
        }
      ],
      "stateMutability": "view",
      "type": "function"
    },
    {
      "inputs": [],
      "name": "USDC_ADDRESS",
      "outputs": [
        {
          "internalType": "address",
          "name": "",
          "type": "address"
        }
      ],
      "stateMutability": "view",
      "type": "function"
    },
    {
      "inputs": [],
      "name": "WORMHOLE",
      "outputs": [
        {
          "internalType": "contract IWormhole",
          "name": "",
          "type": "address"
        }
      ],
      "stateMutability": "view",
      "type": "function"
    },
    {
      "inputs": [],
      "name": "WRAPPED_NATIVE_ADDRESS",
      "outputs": [
        {
          "internalType": "address",
          "name": "",
          "type": "address"
        }
      ],
      "stateMutability": "view",
      "type": "function"
    },
    {
      "inputs": [
        {
          "internalType": "bytes",
          "name": "encoded",
          "type": "bytes"
        }
      ],
      "name": "decodeSwapInParameters",
      "outputs": [
        {
          "components": [
            {
              "internalType": "uint256",
              "name": "estimatedAmount",
              "type": "uint256"
            },
            {
              "internalType": "bytes32",
              "name": "recipientAddress",
              "type": "bytes32"
            },
            {
              "internalType": "address[2]",
              "name": "path",
              "type": "address[2]"
            },
            {
              "internalType": "uint256",
              "name": "deadline",
              "type": "uint256"
            },
            {
              "internalType": "uint24",
              "name": "poolFee",
              "type": "uint24"
            },
            {
              "internalType": "uint256",
              "name": "relayerFee",
              "type": "uint256"
            }
          ],
          "internalType": "struct SwapHelper.RecvSwapInParameters",
          "name": "params",
          "type": "tuple"
        }
      ],
      "stateMutability": "pure",
      "type": "function"
    },
    {
      "stateMutability": "payable",
      "type": "receive"
    },
    {
      "inputs": [
        {
          "components": [
            {
              "internalType": "uint256",
              "name": "amountIn",
              "type": "uint256"
            },
            {
              "internalType": "uint256",
              "name": "amountOutMinimum",
              "type": "uint256"
            },
            {
              "internalType": "uint256",
              "name": "targetAmountOutMinimum",
              "type": "uint256"
            },
            {
              "internalType": "bytes32",
              "name": "targetChainRecipient",
              "type": "bytes32"
            },
            {
              "internalType": "uint256",
              "name": "deadline",
              "type": "uint256"
            },
            {
              "internalType": "uint24",
              "name": "poolFee",
              "type": "uint24"
            }
          ],
          "internalType": "struct SwapHelper.ExactInParameters",
          "name": "swapParams",
          "type": "tuple"
        },
        {
          "internalType": "address[]",
          "name": "path",
          "type": "address[]"
        },
        {
          "internalType": "uint256",
          "name": "relayerFee",
          "type": "uint256"
        },
        {
          "internalType": "uint16",
          "name": "targetChainId",
          "type": "uint16"
        },
        {
          "internalType": "bytes32",
          "name": "targetContractAddress",
          "type": "bytes32"
        }
      ],
      "name": "swapExactNativeInAndTransfer",
      "outputs": [],
      "stateMutability": "payable",
      "type": "function"
    },
    {
      "inputs": [
        {
          "components": [
            {
              "internalType": "bytes",
              "name": "encodedWormholeMessage",
              "type": "bytes"
            },
            {
              "internalType": "bytes",
              "name": "circleBridgeMessage",
              "type": "bytes"
            },
            {
              "internalType": "bytes",
              "name": "circleAttestation",
              "type": "bytes"
            }
          ],
          "internalType": "struct ICircleIntegration.RedeemParameters",
          "name": "redeemParams",
          "type": "tuple"
        }
      ],
      "name": "recvAndSwapExactNativeIn",
      "outputs": [
        {
          "internalType": "uint256",
          "name": "amountOut",
          "type": "uint256"
        }
      ],
      "stateMutability": "nonpayable",
      "type": "function"
    },
    {
      "inputs": [
        {
          "internalType": "uint16",
          "name": "chainId",
          "type": "uint16"
        },
        {
          "internalType": "bytes32",
          "name": "contractAddress",
          "type": "bytes32"
        }
      ],
      "name": "registerContract",
      "outputs": [],
      "stateMutability": "nonpayable",
      "type": "function"
    }
  ],
  "bytecode": "0x6101206040523480156200001257600080fd5b5060405162004174380380620041748339818101604052810190620000389190620001f2565b336000806101000a81548173ffffffffffffffffffffffffffffffffffffffff021916908373ffffffffffffffffffffffffffffffffffffffff1602179055508473ffffffffffffffffffffffffffffffffffffffff1660808173ffffffffffffffffffffffffffffffffffffffff16815250508373ffffffffffffffffffffffffffffffffffffffff1660a08173ffffffffffffffffffffffffffffffffffffffff16815250508273ffffffffffffffffffffffffffffffffffffffff1660c08173ffffffffffffffffffffffffffffffffffffffff16815250508173ffffffffffffffffffffffffffffffffffffffff1660e08173ffffffffffffffffffffffffffffffffffffffff16815250508073ffffffffffffffffffffffffffffffffffffffff166101008173ffffffffffffffffffffffffffffffffffffffff168152505050505050506200027a565b600080fd5b600073ffffffffffffffffffffffffffffffffffffffff82169050919050565b6000620001ba826200018d565b9050919050565b620001cc81620001ad565b8114620001d857600080fd5b50565b600081519050620001ec81620001c1565b92915050565b600080600080600060a0868803121562000211576200021062000188565b5b60006200022188828901620001db565b95505060206200023488828901620001db565b94505060406200024788828901620001db565b93505060606200025a88828901620001db565b92505060806200026d88828901620001db565b9150509295509295909350565b60805160a05160c05160e05161010051613e226200035260003960008181610a5401528181610e550152818161102201526110b001526000818161064e015281816107910152818161094c015281816109be01528181610ccc01528181610ffe01528181611166015281816114fe0152611553015260008181610390015281816106ec015281816108520152818161151f01526115a501526000818161022e015281816112c10152611352015260008181610b1e01528181610c3101528181610d78015281816110460152611b270152613e226000f3fe60806040526004361061008a5760003560e01c8063b38f92c511610059578063b38f92c514610152578063bb09d9b71461018f578063be80a391146101ba578063c6005893146101e5578063ca56cde21461021057610091565b806335e78cfe1461009657806351e2d7b5146100c1578063741357a4146100ea578063943650e91461011557610091565b3661009157005b600080fd5b3480156100a257600080fd5b506100ab61022c565b6040516100b89190611f31565b60405180910390f35b3480156100cd57600080fd5b506100e860048036038101906100e39190611fd0565b610250565b005b3480156100f657600080fd5b506100ff61038e565b60405161010c9190612031565b60405180910390f35b34801561012157600080fd5b5061013c60048036038101906101379190612192565b6103b2565b6040516101499190612359565b60405180910390f35b34801561015e57600080fd5b5061017960048036038101906101749190612436565b610649565b604051610186919061248e565b60405180910390f35b34801561019b57600080fd5b506101a4610ffc565b6040516101b191906124b8565b60405180910390f35b3480156101c657600080fd5b506101cf611020565b6040516101dc91906124b8565b60405180910390f35b3480156101f157600080fd5b506101fa611044565b60405161020791906124f4565b60405180910390f35b61022a600480360381019061022591906125bf565b611068565b005b7f000000000000000000000000000000000000000000000000000000000000000081565b3373ffffffffffffffffffffffffffffffffffffffff1660008054906101000a900473ffffffffffffffffffffffffffffffffffffffff1673ffffffffffffffffffffffffffffffffffffffff16146102de576040517f08c379a00000000000000000000000000000000000000000000000000000000081526004016102d5906126b9565b60405180910390fd5b6000801b8103610323576040517f08c379a000000000000000000000000000000000000000000000000000000000815260040161031a9061274b565b60405180910390fd5b60008261ffff160361036a576040517f08c379a0000000000000000000000000000000000000000000000000000000008152600401610361906127b7565b60405180910390fd5b80600160008461ffff1661ffff168152602001908152602001600020819055505050565b7f000000000000000000000000000000000000000000000000000000000000000081565b6103ba611e4c565b6000806103d0828561165190919063ffffffff16565b90506001826103df9190612806565b915060018160ff1614610427576040517f08c379a000000000000000000000000000000000000000000000000000000000815260040161041e906128a8565b60405180910390fd5b61043a82856116b890919063ffffffff16565b8360000181815250506020826104509190612806565b9150610465828561171f90919063ffffffff16565b83602001818152505060208261047b9190612806565b9150610490828561178690919063ffffffff16565b83604001516000600281106104a8576104a76128c8565b5b602002019073ffffffffffffffffffffffffffffffffffffffff16908173ffffffffffffffffffffffffffffffffffffffff16815250506014826104ec9190612806565b9150610501828561178690919063ffffffff16565b8360400151600160028110610519576105186128c8565b5b602002019073ffffffffffffffffffffffffffffffffffffffff16908173ffffffffffffffffffffffffffffffffffffffff168152505060148261055d9190612806565b915061057282856116b890919063ffffffff16565b8360600181815250506020826105889190612806565b91506001826105979190612806565b91506105ac82856117fc90919063ffffffff16565b61ffff16836080019062ffffff16908162ffffff16815250506002826105d29190612806565b91506105e782856116b890919063ffffffff16565b8360a00181815250506020826105fd9190612806565b915083518214610642576040517f08c379a000000000000000000000000000000000000000000000000000000000815260040161063990612943565b60405180910390fd5b5050919050565b6000807f000000000000000000000000000000000000000000000000000000000000000073ffffffffffffffffffffffffffffffffffffffff166370a08231306040518263ffffffff1660e01b81526004016106a591906124b8565b602060405180830381865afa1580156106c2573d6000803e3d6000fd5b505050506040513d601f19601f820116820180604052508101906106e69190612978565b905060007f000000000000000000000000000000000000000000000000000000000000000073ffffffffffffffffffffffffffffffffffffffff166357bf927b856040518263ffffffff1660e01b81526004016107439190612a8b565b6000604051808303816000875af1158015610762573d6000803e3d6000fd5b505050506040513d6000823e3d601f19601f8201168201806040525081019061078b9190612c94565b905060007f000000000000000000000000000000000000000000000000000000000000000073ffffffffffffffffffffffffffffffffffffffff166370a08231306040518263ffffffff1660e01b81526004016107e891906124b8565b602060405180830381865afa158015610805573d6000803e3d6000fd5b505050506040513d601f19601f820116820180604052508101906108299190612978565b9050600083826108399190612cdd565b9050600061084a8460e001516103b2565b9050600160007f000000000000000000000000000000000000000000000000000000000000000073ffffffffffffffffffffffffffffffffffffffff16638cf67ba987604001516040518263ffffffff1660e01b81526004016108ad9190612d20565b602060405180830381865afa1580156108ca573d6000803e3d6000fd5b505050506040513d601f19601f820116820180604052508101906108ee9190612d50565b61ffff1661ffff168152602001908152602001600020548460a001511461094a576040517f08c379a000000000000000000000000000000000000000000000000000000000815260040161094190612def565b60405180910390fd5b7f000000000000000000000000000000000000000000000000000000000000000073ffffffffffffffffffffffffffffffffffffffff168160400151600060028110610999576109986128c8565b5b602002015173ffffffffffffffffffffffffffffffffffffffff16148015610a1357507f000000000000000000000000000000000000000000000000000000000000000073ffffffffffffffffffffffffffffffffffffffff16846000015160001c73ffffffffffffffffffffffffffffffffffffffff16145b610a52576040517f08c379a0000000000000000000000000000000000000000000000000000000008152600401610a4990612e5b565b60405180910390fd5b7f000000000000000000000000000000000000000000000000000000000000000073ffffffffffffffffffffffffffffffffffffffff168160400151600160028110610aa157610aa06128c8565b5b602002015173ffffffffffffffffffffffffffffffffffffffff1614610afc576040517f08c379a0000000000000000000000000000000000000000000000000000000008152600401610af390612eed565b60405180910390fd5b610b438160400151600060028110610b1757610b166128c8565b5b60200201517f000000000000000000000000000000000000000000000000000000000000000084611863565b60006040518061010001604052808360400151600060028110610b6957610b686128c8565b5b602002015173ffffffffffffffffffffffffffffffffffffffff1681526020018360400151600160028110610ba157610ba06128c8565b5b602002015173ffffffffffffffffffffffffffffffffffffffff168152602001836080015162ffffff1681526020013073ffffffffffffffffffffffffffffffffffffffff1681526020018360600151815260200184815260200183600001518152602001600073ffffffffffffffffffffffffffffffffffffffff1681525090506000826020015160001c90507f000000000000000000000000000000000000000000000000000000000000000073ffffffffffffffffffffffffffffffffffffffff1663414bf389836040518263ffffffff1660e01b8152600401610c889190612fbe565b6020604051808303816000875af1925050508015610cc457506040513d601f19601f82011682018060405250810190610cc19190612978565b60015b610e245760007f00000000000000000000000000000000000000000000000000000000000000009050610d1c338560a001518373ffffffffffffffffffffffffffffffffffffffff166119b29092919063ffffffff16565b610d56828560a0015187610d309190612cdd565b8373ffffffffffffffffffffffffffffffffffffffff166119b29092919063ffffffff16565b610d9e8460400151600060028110610d7157610d706128c8565b5b60200201517f00000000000000000000000000000000000000000000000000000000000000006000611863565b8173ffffffffffffffffffffffffffffffffffffffff167fda9a4112ac825b78f13f71800fb33cf4db7b43cc29219b09b7e495a75eedeade8560400151600060028110610dee57610ded6128c8565b5b6020020151338760a0015189610e049190612cdd565b6000604051610e169493929190613022565b60405180910390a250610fef565b6000858560a0015183610e379190613067565b610e4191906130f0565b905060008183610e519190612cdd565b90507f000000000000000000000000000000000000000000000000000000000000000073ffffffffffffffffffffffffffffffffffffffff16632e1a7d4d846040518263ffffffff1660e01b8152600401610eac919061248e565b600060405180830381600087803b158015610ec657600080fd5b505af1158015610eda573d6000803e3d6000fd5b505050508373ffffffffffffffffffffffffffffffffffffffff166108fc829081150290604051600060405180830381858888f19350505050158015610f24573d6000803e3d6000fd5b503373ffffffffffffffffffffffffffffffffffffffff166108fc839081150290604051600060405180830381858888f19350505050158015610f6b573d6000803e3d6000fd5b508373ffffffffffffffffffffffffffffffffffffffff167fda9a4112ac825b78f13f71800fb33cf4db7b43cc29219b09b7e495a75eedeade8760400151600160028110610fbc57610fbb6128c8565b5b602002015133846001604051610fd5949392919061315c565b60405180910390a2829a5050505050505050505050610ff7565b505050505050505b919050565b7f000000000000000000000000000000000000000000000000000000000000000081565b7f000000000000000000000000000000000000000000000000000000000000000081565b7f000000000000000000000000000000000000000000000000000000000000000081565b828660200135116110ae576040517f08c379a00000000000000000000000000000000000000000000000000000000081526004016110a590613213565b60405180910390fd5b7f000000000000000000000000000000000000000000000000000000000000000073ffffffffffffffffffffffffffffffffffffffff16858560008181106110f9576110f86128c8565b5b905060200201602081019061110e919061325f565b73ffffffffffffffffffffffffffffffffffffffff1614611164576040517f08c379a000000000000000000000000000000000000000000000000000000000815260040161115b906132fe565b60405180910390fd5b7f000000000000000000000000000000000000000000000000000000000000000073ffffffffffffffffffffffffffffffffffffffff16858560018181106111af576111ae6128c8565b5b90506020020160208101906111c4919061325f565b73ffffffffffffffffffffffffffffffffffffffff161461121a576040517f08c379a00000000000000000000000000000000000000000000000000000000081526004016112119061336a565b60405180910390fd5b60048585905014611260576040517f08c379a0000000000000000000000000000000000000000000000000000000008152600401611257906133d6565b60405180910390fd5b80600160008461ffff1661ffff16815260200190815260200160002054146112bd576040517f08c379a00000000000000000000000000000000000000000000000000000000081526004016112b490613442565b60405180910390fd5b60007f000000000000000000000000000000000000000000000000000000000000000073ffffffffffffffffffffffffffffffffffffffff16631a90a2196040518163ffffffff1660e01b8152600401602060405180830381865afa15801561132a573d6000803e3d6000fd5b505050506040513d601f19601f8201168201806040525081019061134e9190612978565b90507f000000000000000000000000000000000000000000000000000000000000000073ffffffffffffffffffffffffffffffffffffffff16631a90a2196040518163ffffffff1660e01b8152600401602060405180830381865afa1580156113bb573d6000803e3d6000fd5b505050506040513d601f19601f820116820180604052508101906113df9190612978565b3411611420576040517f08c379a0000000000000000000000000000000000000000000000000000000008152600401611417906134ae565b60405180910390fd5b600061146782346114319190612cdd565b8960200135898960009060029261144a939291906134d8565b8c608001358d60a0016020810190611462919061353f565b611a38565b90506000600189604001358a606001358a8a600281811061148b5761148a6128c8565b5b90506020020160208101906114a0919061325f565b8b8b60038181106114b4576114b36128c8565b5b90506020020160208101906114c9919061325f565b8d6080013560008c6040516020016114e8989796959493929190613662565b60405160208183030381529060405290506115447f00000000000000000000000000000000000000000000000000000000000000007f000000000000000000000000000000000000000000000000000000000000000084611863565b600060405180608001604052807f000000000000000000000000000000000000000000000000000000000000000073ffffffffffffffffffffffffffffffffffffffff1681526020018481526020018761ffff1681526020018681525090507f000000000000000000000000000000000000000000000000000000000000000073ffffffffffffffffffffffffffffffffffffffff1663a2a1f04c826000856040518463ffffffff1660e01b8152600401611601939291906137d3565b6020604051808303816000875af1158015611620573d6000803e3d6000fd5b505050506040513d601f19601f820116820180604052508101906116449190613811565b5050505050505050505050565b60006001826116609190612806565b835110156116a3576040517f08c379a000000000000000000000000000000000000000000000000000000000815260040161169a9061388a565b60405180910390fd5b60008260018501015190508091505092915050565b60006020826116c79190612806565b8351101561170a576040517f08c379a0000000000000000000000000000000000000000000000000000000008152600401611701906138f6565b60405180910390fd5b60008260208501015190508091505092915050565b600060208261172e9190612806565b83511015611771576040517f08c379a000000000000000000000000000000000000000000000000000000000815260040161176890613962565b60405180910390fd5b60008260208501015190508091505092915050565b60006014826117959190612806565b835110156117d8576040517f08c379a00000000000000000000000000000000000000000000000000000000081526004016117cf906139ce565b60405180910390fd5b60006c01000000000000000000000000836020860101510490508091505092915050565b600060028261180b9190612806565b8351101561184e576040517f08c379a000000000000000000000000000000000000000000000000000000000815260040161184590613a3a565b60405180910390fd5b60008260028501015190508091505092915050565b60008114806118ed575060008373ffffffffffffffffffffffffffffffffffffffff1663dd62ed3e30856040518363ffffffff1660e01b81526004016118aa929190613a5a565b602060405180830381865afa1580156118c7573d6000803e3d6000fd5b505050506040513d601f19601f820116820180604052508101906118eb9190612978565b145b61192c576040517f08c379a000000000000000000000000000000000000000000000000000000000815260040161192390613af5565b60405180910390fd5b6119ad8363095ea7b360e01b848460405160240161194b929190613b15565b604051602081830303815290604052907bffffffffffffffffffffffffffffffffffffffffffffffffffffffff19166020820180517bffffffffffffffffffffffffffffffffffffffffffffffffffffffff8381831617835250505050611bcf565b505050565b611a338363a9059cbb60e01b84846040516024016119d1929190613b15565b604051602081830303815290604052907bffffffffffffffffffffffffffffffffffffffffffffffffffffffff19166020820180517bffffffffffffffffffffffffffffffffffffffffffffffffffffffff8381831617835250505050611bcf565b505050565b60008060405180610100016040528087876000818110611a5b57611a5a6128c8565b5b9050602002016020810190611a70919061325f565b73ffffffffffffffffffffffffffffffffffffffff16815260200187876001818110611a9f57611a9e6128c8565b5b9050602002016020810190611ab4919061325f565b73ffffffffffffffffffffffffffffffffffffffff1681526020018462ffffff1681526020013073ffffffffffffffffffffffffffffffffffffffff168152602001858152602001898152602001888152602001600073ffffffffffffffffffffffffffffffffffffffff1681525090507f000000000000000000000000000000000000000000000000000000000000000073ffffffffffffffffffffffffffffffffffffffff1663414bf38989836040518363ffffffff1660e01b8152600401611b7f9190612fbe565b60206040518083038185885af1158015611b9d573d6000803e3d6000fd5b50505050506040513d601f19601f82011682018060405250810190611bc29190612978565b9150509695505050505050565b6000611c31826040518060400160405280602081526020017f5361666545524332303a206c6f772d6c6576656c2063616c6c206661696c65648152508573ffffffffffffffffffffffffffffffffffffffff16611c969092919063ffffffff16565b9050600081511115611c915780806020019051810190611c519190613b76565b611c90576040517f08c379a0000000000000000000000000000000000000000000000000000000008152600401611c8790613c15565b60405180910390fd5b5b505050565b6060611ca58484600085611cae565b90509392505050565b606082471015611cf3576040517f08c379a0000000000000000000000000000000000000000000000000000000008152600401611cea90613ca7565b60405180910390fd5b611cfc85611dc2565b611d3b576040517f08c379a0000000000000000000000000000000000000000000000000000000008152600401611d3290613d13565b60405180910390fd5b6000808673ffffffffffffffffffffffffffffffffffffffff168587604051611d649190613d6f565b60006040518083038185875af1925050503d8060008114611da1576040519150601f19603f3d011682016040523d82523d6000602084013e611da6565b606091505b5091509150611db6828286611de5565b92505050949350505050565b6000808273ffffffffffffffffffffffffffffffffffffffff163b119050919050565b60608315611df557829050611e45565b600083511115611e085782518084602001fd5b816040517f08c379a0000000000000000000000000000000000000000000000000000000008152600401611e3c9190613dca565b60405180910390fd5b9392505050565b6040518060c001604052806000815260200160008019168152602001611e70611e90565b815260200160008152602001600062ffffff168152602001600081525090565b6040518060400160405280600290602082028036833780820191505090505090565b600073ffffffffffffffffffffffffffffffffffffffff82169050919050565b6000819050919050565b6000611ef7611ef2611eed84611eb2565b611ed2565b611eb2565b9050919050565b6000611f0982611edc565b9050919050565b6000611f1b82611efe565b9050919050565b611f2b81611f10565b82525050565b6000602082019050611f466000830184611f22565b92915050565b6000604051905090565b600080fd5b600080fd5b600061ffff82169050919050565b611f7781611f60565b8114611f8257600080fd5b50565b600081359050611f9481611f6e565b92915050565b6000819050919050565b611fad81611f9a565b8114611fb857600080fd5b50565b600081359050611fca81611fa4565b92915050565b60008060408385031215611fe757611fe6611f56565b5b6000611ff585828601611f85565b925050602061200685828601611fbb565b9150509250929050565b600061201b82611efe565b9050919050565b61202b81612010565b82525050565b60006020820190506120466000830184612022565b92915050565b600080fd5b600080fd5b6000601f19601f8301169050919050565b7f4e487b7100000000000000000000000000000000000000000000000000000000600052604160045260246000fd5b61209f82612056565b810181811067ffffffffffffffff821117156120be576120bd612067565b5b80604052505050565b60006120d1611f4c565b90506120dd8282612096565b919050565b600067ffffffffffffffff8211156120fd576120fc612067565b5b61210682612056565b9050602081019050919050565b82818337600083830152505050565b6000612135612130846120e2565b6120c7565b90508281526020810184848401111561215157612150612051565b5b61215c848285612113565b509392505050565b600082601f8301126121795761217861204c565b5b8135612189848260208601612122565b91505092915050565b6000602082840312156121a8576121a7611f56565b5b600082013567ffffffffffffffff8111156121c6576121c5611f5b565b5b6121d284828501612164565b91505092915050565b6000819050919050565b6121ee816121db565b82525050565b6121fd81611f9a565b82525050565b600060029050919050565b600081905092915050565b6000819050919050565b600061222e82611eb2565b9050919050565b61223e81612223565b82525050565b60006122508383612235565b60208301905092915050565b6000602082019050919050565b61227281612203565b61227c818461220e565b925061228782612219565b8060005b838110156122b857815161229f8782612244565b96506122aa8361225c565b92505060018101905061228b565b505050505050565b600062ffffff82169050919050565b6122d8816122c0565b82525050565b60e0820160008201516122f460008501826121e5565b50602082015161230760208501826121f4565b50604082015161231a6040850182612269565b50606082015161232d60808501826121e5565b50608082015161234060a08501826122cf565b5060a082015161235360c08501826121e5565b50505050565b600060e08201905061236e60008301846122de565b92915050565b600080fd5b600080fd5b60006060828403121561239457612393612374565b5b61239e60606120c7565b9050600082013567ffffffffffffffff8111156123be576123bd612379565b5b6123ca84828501612164565b600083015250602082013567ffffffffffffffff8111156123ee576123ed612379565b5b6123fa84828501612164565b602083015250604082013567ffffffffffffffff81111561241e5761241d612379565b5b61242a84828501612164565b60408301525092915050565b60006020828403121561244c5761244b611f56565b5b600082013567ffffffffffffffff81111561246a57612469611f5b565b5b6124768482850161237e565b91505092915050565b612488816121db565b82525050565b60006020820190506124a3600083018461247f565b92915050565b6124b281612223565b82525050565b60006020820190506124cd60008301846124a9565b92915050565b60006124de82611efe565b9050919050565b6124ee816124d3565b82525050565b600060208201905061250960008301846124e5565b92915050565b600080fd5b600060c0828403121561252a5761252961250f565b5b81905092915050565b600080fd5b600080fd5b60008083601f8401126125535761255261204c565b5b8235905067ffffffffffffffff8111156125705761256f612533565b5b60208301915083602082028301111561258c5761258b612538565b5b9250929050565b61259c816121db565b81146125a757600080fd5b50565b6000813590506125b981612593565b92915050565b60008060008060008061014087890312156125dd576125dc611f56565b5b60006125eb89828a01612514565b96505060c087013567ffffffffffffffff81111561260c5761260b611f5b565b5b61261889828a0161253d565b955095505060e061262b89828a016125aa565b93505061010061263d89828a01611f85565b92505061012061264f89828a01611fbb565b9150509295509295509295565b600082825260208201905092915050565b7f63616c6c6572206e6f7420746865206465706c6f796572000000000000000000600082015250565b60006126a360178361265c565b91506126ae8261266d565b602082019050919050565b600060208201905081810360008301526126d281612696565b9050919050565b7f656d6974746572416464726573732063616e6e6f7420657175616c206279746560008201527f7333322830290000000000000000000000000000000000000000000000000000602082015250565b600061273560268361265c565b9150612740826126d9565b604082019050919050565b6000602082019050818103600083015261276481612728565b9050919050565b7f636861696e4964206d757374206265203e203000000000000000000000000000600082015250565b60006127a160138361265c565b91506127ac8261276b565b602082019050919050565b600060208201905081810360008301526127d081612794565b9050919050565b7f4e487b7100000000000000000000000000000000000000000000000000000000600052601160045260246000fd5b6000612811826121db565b915061281c836121db565b9250827fffffffffffffffffffffffffffffffffffffffffffffffffffffffffffffffff03821115612851576128506127d7565b5b828201905092915050565b7f696e76616c6964207061796c6f61640000000000000000000000000000000000600082015250565b6000612892600f8361265c565b915061289d8261285c565b602082019050919050565b600060208201905081810360008301526128c181612885565b9050919050565b7f4e487b7100000000000000000000000000000000000000000000000000000000600052603260045260246000fd5b7f696e76616c69642073776170207061796c6f6164000000000000000000000000600082015250565b600061292d60148361265c565b9150612938826128f7565b602082019050919050565b6000602082019050818103600083015261295c81612920565b9050919050565b60008151905061297281612593565b92915050565b60006020828403121561298e5761298d611f56565b5b600061299c84828501612963565b91505092915050565b600081519050919050565b600082825260208201905092915050565b60005b838110156129df5780820151818401526020810190506129c4565b838111156129ee576000848401525b50505050565b60006129ff826129a5565b612a0981856129b0565b9350612a198185602086016129c1565b612a2281612056565b840191505092915050565b60006060830160008301518482036000860152612a4a82826129f4565b91505060208301518482036020860152612a6482826129f4565b91505060408301518482036040860152612a7e82826129f4565b9150508091505092915050565b60006020820190508181036000830152612aa58184612a2d565b905092915050565b600081519050612abc81611fa4565b92915050565b600063ffffffff82169050919050565b612adb81612ac2565b8114612ae657600080fd5b50565b600081519050612af881612ad2565b92915050565b600067ffffffffffffffff82169050919050565b612b1b81612afe565b8114612b2657600080fd5b50565b600081519050612b3881612b12565b92915050565b6000612b51612b4c846120e2565b6120c7565b905082815260208101848484011115612b6d57612b6c612051565b5b612b788482856129c1565b509392505050565b600082601f830112612b9557612b9461204c565b5b8151612ba5848260208601612b3e565b91505092915050565b60006101008284031215612bc557612bc4612374565b5b612bd06101006120c7565b90506000612be084828501612aad565b6000830152506020612bf484828501612963565b6020830152506040612c0884828501612ae9565b6040830152506060612c1c84828501612ae9565b6060830152506080612c3084828501612b29565b60808301525060a0612c4484828501612aad565b60a08301525060c0612c5884828501612aad565b60c08301525060e082015167ffffffffffffffff811115612c7c57612c7b612379565b5b612c8884828501612b80565b60e08301525092915050565b600060208284031215612caa57612ca9611f56565b5b600082015167ffffffffffffffff811115612cc857612cc7611f5b565b5b612cd484828501612bae565b91505092915050565b6000612ce8826121db565b9150612cf3836121db565b925082821015612d0657612d056127d7565b5b828203905092915050565b612d1a81612ac2565b82525050565b6000602082019050612d356000830184612d11565b92915050565b600081519050612d4a81611f6e565b92915050565b600060208284031215612d6657612d65611f56565b5b6000612d7484828501612d3b565b91505092915050565b7f66726f6d41646472657373206973206e6f74206120726567697374657265642060008201527f636f6e7472616374000000000000000000000000000000000000000000000000602082015250565b6000612dd960288361265c565b9150612de482612d7d565b604082019050919050565b60006020820190508181036000830152612e0881612dcc565b9050919050565b7f746f6b656e496e206d7573742062652055534443000000000000000000000000600082015250565b6000612e4560148361265c565b9150612e5082612e0f565b602082019050919050565b60006020820190508181036000830152612e7481612e38565b9050919050565b7f746f6b656e4f7574206d7573742062652077726170706564204e61746976652060008201527f6173736574000000000000000000000000000000000000000000000000000000602082015250565b6000612ed760258361265c565b9150612ee282612e7b565b604082019050919050565b60006020820190508181036000830152612f0681612eca565b9050919050565b612f1681611eb2565b82525050565b61010082016000820151612f336000850182612235565b506020820151612f466020850182612235565b506040820151612f5960408501826122cf565b506060820151612f6c6060850182612235565b506080820151612f7f60808501826121e5565b5060a0820151612f9260a08501826121e5565b5060c0820151612fa560c08501826121e5565b5060e0820151612fb860e0850182612f0d565b50505050565b600061010082019050612fd46000830184612f1c565b92915050565b6000819050919050565b600060ff82169050919050565b600061300c61300761300284612fda565b611ed2565b612fe4565b9050919050565b61301c81612ff1565b82525050565b600060808201905061303760008301876124a9565b61304460208301866124a9565b613051604083018561247f565b61305e6060830184613013565b95945050505050565b6000613072826121db565b915061307d836121db565b9250817fffffffffffffffffffffffffffffffffffffffffffffffffffffffffffffffff04831182151516156130b6576130b56127d7565b5b828202905092915050565b7f4e487b7100000000000000000000000000000000000000000000000000000000600052601260045260246000fd5b60006130fb826121db565b9150613106836121db565b925082613116576131156130c1565b5b828204905092915050565b6000819050919050565b600061314661314161313c84613121565b611ed2565b612fe4565b9050919050565b6131568161312b565b82525050565b600060808201905061317160008301876124a9565b61317e60208301866124a9565b61318b604083018561247f565b613198606083018461314d565b95945050505050565b7f696e73756666696369656e7420616d6f756e744f75744d696e696d756d20746f60008201527f207061792072656c617965720000000000000000000000000000000000000000602082015250565b60006131fd602c8361265c565b9150613208826131a1565b604082019050919050565b6000602082019050818103600083015261322c816131f0565b9050919050565b61323c81612223565b811461324757600080fd5b50565b60008135905061325981613233565b92915050565b60006020828403121561327557613274611f56565b5b60006132838482850161324a565b91505092915050565b7f746f6b656e496e206d7573742062652077726170706564206e6174697665206160008201527f7373657400000000000000000000000000000000000000000000000000000000602082015250565b60006132e860248361265c565b91506132f38261328c565b604082019050919050565b60006020820190508181036000830152613317816132db565b9050919050565b7f746f6b656e4f7574206d75737420626520555344430000000000000000000000600082015250565b600061335460158361265c565b915061335f8261331e565b602082019050919050565b6000602082019050818103600083015261338381613347565b9050919050565b7f696e76616c696420706174680000000000000000000000000000000000000000600082015250565b60006133c0600c8361265c565b91506133cb8261338a565b602082019050919050565b600060208201905081810360008301526133ef816133b3565b9050919050565b7f74617267657420636f6e7472616374206e6f7420726567697374657265640000600082015250565b600061342c601e8361265c565b9150613437826133f6565b602082019050919050565b6000602082019050818103600083015261345b8161341f565b9050919050565b7f696e73756666696369656e742076616c75650000000000000000000000000000600082015250565b600061349860128361265c565b91506134a382613462565b602082019050919050565b600060208201905081810360008301526134c78161348b565b9050919050565b600080fd5b600080fd5b600080858511156134ec576134eb6134ce565b5b838611156134fd576134fc6134d3565b5b6020850283019150848603905094509492505050565b61351c816122c0565b811461352757600080fd5b50565b60008135905061353981613513565b92915050565b60006020828403121561355557613554611f56565b5b60006135638482850161352a565b91505092915050565b60008160f81b9050919050565b60006135848261356c565b9050919050565b61359c61359782612fe4565b613579565b82525050565b6000819050919050565b6135bd6135b8826121db565b6135a2565b82525050565b6000819050919050565b6135de6135d982611f9a565b6135c3565b82525050565b60008160601b9050919050565b60006135fc826135e4565b9050919050565b600061360e826135f1565b9050919050565b61362661362182612223565b613603565b82525050565b60008160e81b9050919050565b60006136448261362c565b9050919050565b61365c613657826122c0565b613639565b82525050565b600061366e828b61358b565b60018201915061367e828a6135ac565b60208201915061368e82896135cd565b60208201915061369e8288613615565b6014820191506136ae8287613615565b6014820191506136be82866135ac565b6020820191506136ce828561364b565b6003820191506136de82846135ac565b6020820191508190509998505050505050505050565b6136fd81611f60565b82525050565b6080820160008201516137196000850182612235565b50602082015161372c60208501826121e5565b50604082015161373f60408501826136f4565b50606082015161375260608501826121f4565b50505050565b600061377361376e61376984612fda565b611ed2565b612ac2565b9050919050565b61378381613758565b82525050565b600082825260208201905092915050565b60006137a5826129a5565b6137af8185613789565b93506137bf8185602086016129c1565b6137c881612056565b840191505092915050565b600060c0820190506137e86000830186613703565b6137f5608083018561377a565b81810360a0830152613807818461379a565b9050949350505050565b60006020828403121561382757613826611f56565b5b600061383584828501612b29565b91505092915050565b7f746f55696e74385f6f75744f66426f756e647300000000000000000000000000600082015250565b600061387460138361265c565b915061387f8261383e565b602082019050919050565b600060208201905081810360008301526138a381613867565b9050919050565b7f746f55696e743235365f6f75744f66426f756e64730000000000000000000000600082015250565b60006138e060158361265c565b91506138eb826138aa565b602082019050919050565b6000602082019050818103600083015261390f816138d3565b9050919050565b7f746f427974657333325f6f75744f66426f756e64730000000000000000000000600082015250565b600061394c60158361265c565b915061395782613916565b602082019050919050565b6000602082019050818103600083015261397b8161393f565b9050919050565b7f746f416464726573735f6f75744f66426f756e64730000000000000000000000600082015250565b60006139b860158361265c565b91506139c382613982565b602082019050919050565b600060208201905081810360008301526139e7816139ab565b9050919050565b7f746f55696e7431365f6f75744f66426f756e6473000000000000000000000000600082015250565b6000613a2460148361265c565b9150613a2f826139ee565b602082019050919050565b60006020820190508181036000830152613a5381613a17565b9050919050565b6000604082019050613a6f60008301856124a9565b613a7c60208301846124a9565b9392505050565b7f5361666545524332303a20617070726f76652066726f6d206e6f6e2d7a65726f60008201527f20746f206e6f6e2d7a65726f20616c6c6f77616e636500000000000000000000602082015250565b6000613adf60368361265c565b9150613aea82613a83565b604082019050919050565b60006020820190508181036000830152613b0e81613ad2565b9050919050565b6000604082019050613b2a60008301856124a9565b613b37602083018461247f565b9392505050565b60008115159050919050565b613b5381613b3e565b8114613b5e57600080fd5b50565b600081519050613b7081613b4a565b92915050565b600060208284031215613b8c57613b8b611f56565b5b6000613b9a84828501613b61565b91505092915050565b7f5361666545524332303a204552433230206f7065726174696f6e20646964206e60008201527f6f74207375636365656400000000000000000000000000000000000000000000602082015250565b6000613bff602a8361265c565b9150613c0a82613ba3565b604082019050919050565b60006020820190508181036000830152613c2e81613bf2565b9050919050565b7f416464726573733a20696e73756666696369656e742062616c616e636520666f60008201527f722063616c6c0000000000000000000000000000000000000000000000000000602082015250565b6000613c9160268361265c565b9150613c9c82613c35565b604082019050919050565b60006020820190508181036000830152613cc081613c84565b9050919050565b7f416464726573733a2063616c6c20746f206e6f6e2d636f6e7472616374000000600082015250565b6000613cfd601d8361265c565b9150613d0882613cc7565b602082019050919050565b60006020820190508181036000830152613d2c81613cf0565b9050919050565b600081905092915050565b6000613d49826129a5565b613d538185613d33565b9350613d638185602086016129c1565b80840191505092915050565b6000613d7b8284613d3e565b915081905092915050565b600081519050919050565b6000613d9c82613d86565b613da6818561265c565b9350613db68185602086016129c1565b613dbf81612056565b840191505092915050565b60006020820190508181036000830152613de48184613d91565b90509291505056fea264697066735822122081f01154fcaf11a35eca07014fc178ce2deef9603460f5687cb8e5b7c49b154364736f6c634300080d0033",
  "immutableReferences": {
    "1888": [
      {
        "length": 32,
        "start": 2846
      },
      {
        "length": 32,
        "start": 3121
      },
      {
        "length": 32,
        "start": 3448
      },
      {
        "length": 32,
        "start": 4166
      },
      {
        "length": 32,
        "start": 6951
      }
    ],
    "1891": [
      {
        "length": 32,
        "start": 558
      },
      {
        "length": 32,
        "start": 4801
      },
      {
        "length": 32,
        "start": 4946
      }
    ],
    "1894": [
      {
        "length": 32,
        "start": 912
      },
      {
        "length": 32,
        "start": 1772
      },
      {
        "length": 32,
        "start": 2130
      },
      {
        "length": 32,
        "start": 5407
      },
      {
        "length": 32,
        "start": 5541
      }
    ],
    "1896": [
      {
        "length": 32,
        "start": 1614
      },
      {
        "length": 32,
        "start": 1937
      },
      {
        "length": 32,
        "start": 2380
      },
      {
        "length": 32,
        "start": 2494
      },
      {
        "length": 32,
        "start": 3276
      },
      {
        "length": 32,
        "start": 4094
      },
      {
        "length": 32,
        "start": 4454
      },
      {
        "length": 32,
        "start": 5374
      },
      {
        "length": 32,
        "start": 5459
      }
    ],
    "1898": [
      {
        "length": 32,
        "start": 2644
      },
      {
        "length": 32,
        "start": 3669
      },
      {
        "length": 32,
        "start": 4130
      },
      {
        "length": 32,
        "start": 4272
      }
    ]
  },
  "source": "// SPDX-License-Identifier: Apache 2\n\npragma solidity ^0.8.13;\n\nimport \"./libraries/BytesLib.sol\";\nimport \"@openzeppelin/contracts/token/ERC20/IERC20.sol\";\nimport \"@openzeppelin/contracts/token/ERC20/utils/SafeERC20.sol\";\nimport \"@uniswap/v3-periphery/contracts/interfaces/ISwapRouter.sol\";\n\nimport \"./interfaces/IWormhole.sol\";\nimport \"./interfaces/IWETH.sol\";\nimport \"./interfaces/IUniswap.sol\";\nimport \"./interfaces/ICircleIntegration.sol\";\n\nimport \"./SwapHelper.sol\";\n\n/// @title A cross-chain UniswapV3 example\n/// @notice Swaps against UniswapV3 pools and uses Wormhole's USDC Bridge integration\n/// to mint and burn USDC cross-chain\ncontract CrossChainSwapV3 is SwapHelper {\n    using SafeERC20 for IERC20;\n    using BytesLib for bytes;\n\n    // contract deployer\n    address deployer;\n\n    // contracts\n    IUniswapRouter public immutable SWAP_ROUTER;\n    IWormhole public immutable WORMHOLE;\n    ICircleIntegration public immutable CIRCLE_INTEGRATION;\n\n    // token addresses\n    address public immutable USDC_ADDRESS;\n    address public immutable WRAPPED_NATIVE_ADDRESS;\n\n    // registered nativeswap contracts\n    mapping(uint16 => bytes32) registeredContracts;\n\n    constructor(\n        address _swapRouterAddress,\n        address _wormholeAddress,\n        address _usdcIntegrationAddress,\n        address _usdcAddress,\n        address _wrappedNativeAddress\n    ) {\n        deployer = msg.sender;\n        SWAP_ROUTER = IUniswapRouter(_swapRouterAddress);\n        WORMHOLE = IWormhole(_wormholeAddress);\n        CIRCLE_INTEGRATION = ICircleIntegration(_usdcIntegrationAddress);\n        USDC_ADDRESS = _usdcAddress;\n        WRAPPED_NATIVE_ADDRESS = _wrappedNativeAddress;\n    }\n\n    /// @dev Used to communicate information about executed swaps to UI/user\n    event SwapResult(\n        address indexed _recipient,\n        address _tokenOut,\n        address _from,\n        uint256 _amountOut,\n        uint8 _success\n    );\n\n    /// @dev Calls _swapExactInBeforeTransfer and encodes custom payload with\n    /// instructions for executing native asset swaps on the destination chain\n    function swapExactNativeInAndTransfer(\n        ExactInParameters calldata swapParams,\n        address[] calldata path,\n        uint256 relayerFee,\n        uint16 targetChainId,\n        bytes32 targetContractAddress\n    ) external payable {\n        require(\n            swapParams.amountOutMinimum > relayerFee,\n            \"insufficient amountOutMinimum to pay relayer\"\n        );\n        require(\n            path[0]==WRAPPED_NATIVE_ADDRESS,\n            \"tokenIn must be wrapped native asset\"\n        );\n        require(\n            path[1]==USDC_ADDRESS,\n            \"tokenOut must be USDC\"\n        );\n        require(path.length == 4, \"invalid path\");\n        require(\n            registeredContracts[targetChainId] == targetContractAddress,\n            \"target contract not registered\"\n        );\n\n        // cache wormhole fee and check msg.value\n        uint256 wormholeFee = WORMHOLE.messageFee();\n        require(msg.value > WORMHOLE.messageFee(), \"insufficient value\");\n\n        // peform the first swap\n        uint256 amountOut = _swapExactInBeforeTransfer(\n            msg.value - wormholeFee,\n            swapParams.amountOutMinimum,\n            path[0:2],\n            swapParams.deadline,\n            swapParams.poolFee\n        );\n\n        // create payload with target swap instructions\n        bytes memory payload = abi.encodePacked(\n            uint8(1), // swap version\n            swapParams.targetAmountOutMinimum,\n            swapParams.targetChainRecipient,\n            path[2],\n            path[3],\n            swapParams.deadline,\n            uint24(0),\n            relayerFee\n        );\n\n        // approve USDC integration contract to spend USDC\n        SafeERC20.safeApprove(\n            IERC20(USDC_ADDRESS),\n            address(CIRCLE_INTEGRATION),\n            amountOut\n        );\n\n        // create transfer params used to invoke the circle integration contract\n        ICircleIntegration.TransferParameters memory transferParams =\n            ICircleIntegration.TransferParameters({\n                token: USDC_ADDRESS,\n                amount: amountOut,\n                targetChain: targetChainId,\n                mintRecipient: targetContractAddress\n            });\n\n        // Call the USDC integration contract to burn the USDC\n        // and emit a wormhole message.\n        CIRCLE_INTEGRATION.transferTokensWithPayload(\n            transferParams,\n            0, // batchId=0 to opt out of batching\n            payload\n        );\n    }\n\n    function _swapExactInBeforeTransfer(\n        uint256 amountIn,\n        uint256 amountOutMinimum,\n        address[] calldata path,\n        uint256 deadline,\n        uint24 poolFee\n    ) internal returns (uint256 amountOut) {\n        // set swap options with user params\n        ISwapRouter.ExactInputSingleParams memory params =\n            ISwapRouter.ExactInputSingleParams({\n                tokenIn: path[0],\n                tokenOut: path[1],\n                fee: poolFee,\n                recipient: address(this),\n                deadline: deadline,\n                amountIn: amountIn,\n                amountOutMinimum: amountOutMinimum,\n                sqrtPriceLimitX96: 0\n            });\n\n        // perform the swap\n        amountOut = SWAP_ROUTER.exactInputSingle{value: amountIn}(params);\n    }\n\n    /// @dev Mints USDC and executes exactIn native asset swap and pays the relayer\n    function recvAndSwapExactNativeIn(\n        ICircleIntegration.RedeemParameters memory redeemParams\n    ) external returns (uint256 amountOut) {\n        // check USDC balance before minting\n        uint256 balanceBefore = IERC20(USDC_ADDRESS).balanceOf(address(this));\n\n        // mint USDC to this contract\n        ICircleIntegration.DepositWithPayload memory deposit = CIRCLE_INTEGRATION.redeemTokensWithPayload(\n            redeemParams\n        );\n\n        // check USDC balance after minting\n        uint256 balanceAfter = IERC20(USDC_ADDRESS).balanceOf(address(this));\n        uint256 swapAmount = balanceAfter - balanceBefore;\n\n        // parse swap params from USDC integration contract payload\n        RecvSwapInParameters memory swapParams = decodeSwapInParameters(\n            deposit.payload\n        );\n\n        // verify that the sender is a registered contract\n        require(\n            deposit.fromAddress == registeredContracts[\n                CIRCLE_INTEGRATION.getChainIdFromDomain(deposit.sourceDomain)\n            ],\n            \"fromAddress is not a registered contract\"\n        );\n\n        // sanity check path\n        require(\n            swapParams.path[0]==USDC_ADDRESS &&\n            address(uint160(uint256(deposit.token)))==USDC_ADDRESS,\n            \"tokenIn must be USDC\"\n        );\n        require(\n            swapParams.path[1]==WRAPPED_NATIVE_ADDRESS,\n            \"tokenOut must be wrapped Native asset\"\n        );\n\n        // approve the router to spend tokens\n        SafeERC20.safeApprove(\n            IERC20(swapParams.path[0]),\n            address(SWAP_ROUTER),\n            swapAmount\n        );\n\n        // set swap options with user params\n        ISwapRouter.ExactInputSingleParams memory params =\n            ISwapRouter.ExactInputSingleParams({\n                tokenIn: swapParams.path[0],\n                tokenOut: swapParams.path[1],\n                fee: swapParams.poolFee,\n                recipient: address(this),\n                deadline: swapParams.deadline,\n                amountIn: swapAmount,\n                amountOutMinimum: swapParams.estimatedAmount,\n                sqrtPriceLimitX96: 0\n            });\n\n        // convert recipient bytes32 address to type address\n        address recipientAddress = address(uint160(uint256(swapParams.recipientAddress)));\n\n        // try to execute the swap\n        try SWAP_ROUTER.exactInputSingle(params) returns (uint256 amountOut) {\n            // calculate how much to pay the relayer in the native token\n            uint256 nativeRelayerFee = amountOut * swapParams.relayerFee / swapAmount;\n            uint256 nativeAmountOut = amountOut - nativeRelayerFee;\n\n            // unwrap native and send to recipient\n            IWETH(WRAPPED_NATIVE_ADDRESS).withdraw(amountOut);\n            payable(recipientAddress).transfer(nativeAmountOut);\n\n            /// pay the relayer in the native token\n            payable(msg.sender).transfer(nativeRelayerFee);\n\n            // used in UI to tell user they're getting\n            // their desired token\n            emit SwapResult(\n                recipientAddress,\n                swapParams.path[1],\n                msg.sender,\n                nativeAmountOut,\n                1\n            );\n            return amountOut;\n        } catch {\n            // pay relayer in the USDC since the swap failed\n            IERC20 feeToken = IERC20(USDC_ADDRESS);\n            feeToken.safeTransfer(msg.sender, swapParams.relayerFee);\n\n            // swap failed - return USDC (less relayer fees) to recipient\n            feeToken.safeTransfer(\n                recipientAddress,\n                swapAmount - swapParams.relayerFee\n            );\n\n            // set the Uniswap allowance to zero\n             SafeERC20.safeApprove(\n                IERC20(swapParams.path[0]),\n                address(SWAP_ROUTER),\n                0\n            );\n\n            // used in UI to tell user they're getting\n            // USDC instead of their desired native asset\n            emit SwapResult(\n                recipientAddress,\n                swapParams.path[0],\n                msg.sender,\n                swapAmount - swapParams.relayerFee,\n                0\n            );\n        }\n    }\n\n    /// @dev `registerContract` serves to save trusted circle relayer contract addresses\n    function registerContract(\n        uint16 chainId,\n        bytes32 contractAddress\n    ) public onlyDeployer {\n        // sanity check both input arguments\n        require(\n            contractAddress != bytes32(0),\n            \"emitterAddress cannot equal bytes32(0)\"\n        );\n        require(chainId != 0, \"chainId must be > 0\");\n\n        // update the registeredContracts state variable\n        registeredContracts[chainId] = contractAddress;\n    }\n\n    modifier onlyDeployer() {\n        require(deployer == msg.sender, \"caller not the deployer\");\n        _;\n    }\n\n    // necessary for receiving native assets\n    receive() external payable {}\n}\n",
  "sourcePath": "/home/kpeters/repos/example-nativeswap-usdc/contracts/contracts/CrossChainSwapV3.sol",
  "compiler": {
    "name": "solc",
    "version": "0.8.13+commit.abaa5c0e.Emscripten.clang"
  },
  "schemaVersion": "3.4.4",
  "updatedAt": "2022-12-22T17:38:46.927Z",
  "devdoc": {
    "events": {
      "SwapResult(address,address,address,uint256,uint8)": {
        "details": "Used to communicate information about executed swaps to UI/user"
      }
    },
    "kind": "dev",
    "methods": {
      "recvAndSwapExactNativeIn((bytes,bytes,bytes))": {
        "details": "Mints USDC and executes exactIn native asset swap and pays the relayer"
      },
      "registerContract(uint16,bytes32)": {
        "details": "`registerContract` serves to save trusted circle relayer contract addresses"
      },
      "swapExactNativeInAndTransfer((uint256,uint256,uint256,bytes32,uint256,uint24),address[],uint256,uint16,bytes32)": {
        "details": "Calls _swapExactInBeforeTransfer and encodes custom payload with instructions for executing native asset swaps on the destination chain"
      }
    },
    "title": "A cross-chain UniswapV3 example",
    "version": 1
  },
  "userdoc": {
    "kind": "user",
    "methods": {},
    "notice": "Swaps against UniswapV3 pools and uses Wormhole's USDC Bridge integration to mint and burn USDC cross-chain",
    "version": 1
  }
}